:100000000C945D000C9485000C9485000C94850084
:100010000C9485000C9485000C9485000C9485004C
:100020000C9485000C9485000C9485000C9485003C
:100030000C9485000C9485000C9485000C9485002C
:100040000C94AE030C9485000C947C030C94560322
:100050000C9485000C9485000C9485000C9485000C
:100060000C9485000C94850000000008000201003B
:100070000003040700000000000000000000000072
:10008000250028002B0000000000240027002A0083
:10009000040404040404040402020202020203032E
:1000A0000303030301020408102040800102040836
:1000B0001020010204081020F80311241FBECFEF06
:1000C000D8E0DEBFCDBF11E0A0E0B1E0E6E2FBE0AA
:1000D00002C005900D92AE32B107D9F721E0AEE231
:1000E000B1E001C01D92AE3EB207E1F710E0CDE5F0
:1000F000D0E004C02197FE010E948B05CC35D107CA
:10010000C9F70E9442040C9491050C94000090E001
:10011000FC01EC55FF4F249180579F4FFC018491C7
:10012000882399F090E0880F991FFC01EA57FF4F50
:10013000A591B491FC01E458FF4F859194918FB73C
:10014000F894EC91E22BEC938FBF0895AF92BF929D
:10015000CF92DF92EF92FF920F931F93CF93DF9393
:100160006C017B018B01040F151FEB015E01AE18C2
:10017000BF08C017D10759F06991D601ED91FC91E4
:100180000190F081E02DC6010995892B79F7C50111
:10019000DF91CF911F910F91FF90EF90DF90CF9063
:1001A000BF90AF900895FC01538D448D252F30E012
:1001B000842F90E0821B930B541710F0CF96089574
:1001C00001970895FC01918D828D981761F0A28DA1
:1001D000AE0FBF2FB11D5D968C91928D9F5F9F7367
:1001E000928F90E008958FEF9FEF0895FC01918D1D
:1001F000828D981731F0828DE80FF11D858D90E08A
:1002000008958FEF9FEF0895FC01918D228D892F26
:1002100090E0805C9F4F821B91098F73992708950E
:1002200089E391E00E94040121E0892B09F420E098
:10023000822F089580E090E0892B29F00E94100120
:1002400081110C9400000895FC01A48DA80FB92F12
:10025000B11DA35ABF4F2C91848D90E001968F73EE
:100260009927848FA689B7892C93A089B1898C910D
:10027000837080648C93938D848D981306C002885C
:10028000F389E02D80818F7D80830895EF92FF9226
:100290000F931F93CF93DF93EC0181E0888F9B8DA9
:1002A0008C8D98131AC0E889F989808185FF15C063
:1002B0009FB7F894EE89FF896083E889F989808186
:1002C0008370806480839FBF81E090E0DF91CF9155
:1002D0001F910F91FF90EF900895F62E0B8D10E077
:1002E0000F5F1F4F0F731127E02E8C8D8E110CC0E6
:1002F0000FB607FCFACFE889F989808185FFF5CF31
:10030000CE010E942401F1CFEB8DEC0FFD2FF11DEA
:10031000E35AFF4FF0829FB7F8940B8FEA89FB896D
:1003200080818062CFCFCF93DF93EC01888D8823CB
:10033000B9F0AA89BB89E889F9898C9185FD03C048
:10034000808186FD0DC00FB607FCF7CF8C9185FF2D
:10035000F2CF808185FFEDCFCE010E942401E9CF4D
:10036000DF91CF91089590E0FC01E859FF4F24916F
:10037000FC01EC55FF4F3491FC01E057FF4FE49135
:10038000EE23C9F0222339F0233001F1A8F4213003
:1003900019F1223029F1F0E0EE0FFF1FE458FF4F72
:1003A000A591B4918FB7F894EC91611126C0309566
:1003B0003E233C938FBF08952730A9F02830C9F021
:1003C000243049F7809180008F7D03C080918000A8
:1003D0008F7780938000DFCF84B58F7784BDDBCFAC
:1003E00084B58F7DFBCF8091B0008F778093B00074
:1003F000D2CF8091B0008F7DF9CF3E2BDACF089518
:1004000090E080E00895CF93DF93EC0160E08E816F
:100410000E94B30161E08E810E94B30160E08E8191
:100420000E94B3018BE891E00197F1F7DF91CF9142
:100430000895CF92DF92EF92FF920F931F93CF9385
:10044000DF936C017C0187E0E80EF11CD0E0C0E096
:10045000062F10E0B8010C2E02C0759567950A941E
:10046000E2F76170F70181917F010E94B30121964B
:10047000C430D10579F7C601DF91CF911F910F915B
:10048000FF90EF90DF90CF900C940302CF92DF9219
:10049000EF92FF920F931F93CF93DF93EC01F62E11
:1004A000642F8C810E94B3018D818F3F19F060E031
:1004B0000E94B3010F2D10E08F8584FF25C06E01CF
:1004C00087E0C80ED11CF12CE12CB8010E2C02C023
:1004D000759567950A94E2F76170F60181916F0155
:1004E0000E94B301FFEFEF1AFF0A88E0E816F1045B
:1004F00061F7CE01DF91CF911F910F91FF90EF90A7
:10050000DF90CF900C940302B80184E07595679555
:100510008A95E1F7CE010E9419026F2DCE01DF917D
:10052000CF911F910F91FF90EF90DF90CF900C949F
:10053000190240E0682F86ED91E00C944602CF93BB
:10054000DF93823029F49091E50198609093E50162
:100550008093E9011092EA0180E48093EB0180E14D
:100560008093EC0180E58093ED018091DA010E9497
:1005700087008091DB018F3F11F00E9487008091FE
:10058000DC010E948700C6EDD1E09E01265D31406E
:100590008091E50184FD0AC084E090E0219628174F
:1005A00039073CF48E810E948700EFCF88E090E00D
:1005B000F5CF8BE39DE00197F1F760E08091DA01E0
:1005C0000E94B30160E08091DC010E94B301809140
:1005D000DB018F3F19F060E00E94B3018091E501DB
:1005E00084FD39C063E086ED91E00E941902CBE4FE
:1005F000D6E4CE010197F1F763E086ED91E00E9429
:1006000019022197F1F763E086ED91E00E9419024B
:1006100083E592E00197F1F762E086ED91E00E94B8
:1006200019028091E50180620E94990284E0809322
:10063000E6018CE00E94990281E00E9499028BE31E
:100640009FE10197F1F782E08093E70186E0DF9177
:10065000CF910C94990280620E9499028BE496E4F7
:100660000197F1F78091E50180620E94990283E58C
:1006700092E00197F1F78091E50180620E94990272
:10068000D0CF41E00E94460281E090E00895FB0156
:1006900001900020E9F73197AF01461B570BDC01B1
:1006A000ED91FC910280F381E02D09941F920F924D
:1006B0000FB60F9211242F933F934F935F936F9335
:1006C0007F938F939F93AF93BF93EF93FF9389E3B0
:1006D00091E00E942401FF91EF91BF91AF919F9112
:1006E0008F917F916F915F914F913F912F910F90DB
:1006F0000FBE0F901F9018951F920F920FB60F927A
:1007000011242F938F939F93EF93FF93E0914901CF
:10071000F0914A018081E0914F01F091500182FDFA
:100720001BC09081809152018F5F8F732091530184
:10073000821741F0E0915201F0E0E75CFE4F958FA7
:1007400080935201FF91EF919F918F912F910F9084
:100750000FBE0F901F9018958081F4CF1F920F92BB
:100760000FB60F9211242F933F938F939F93AF93C4
:10077000BF938091330190913401A0913501B091E4
:1007800036013091320123E0230F2D3758F50196C1
:10079000A11DB11D20933201809333019093340148
:1007A000A0933501B093360180912E0190912F01D5
:1007B000A0913001B09131010196A11DB11D80932E
:1007C0002E0190932F01A0933001B0933101BF917E
:1007D000AF919F918F913F912F910F900FBE0F90EE
:1007E0001F90189526E8230F0296A11DB11DD2CFA8
:1007F000E9E3F1E01382128288EE93E0A0E0B0E03A
:1008000084839583A683B78384E091E0918380837A
:1008100085EC90E09587848784EC90E097878687C5
:1008200080EC90E0918B808B81EC90E0938B828BBD
:1008300082EC90E0958B848B86EC90E0978B868B96
:10084000118E128E138E148EE6EDF1E01382128259
:1008500086E191E09183808388E084838FEF8583B4
:1008600089E0868384E0878385E0808786E08187CE
:1008700087E082871386148615861686178681E0A0
:100880000C949F02CF93DF93CDB7DEB7A1970FB63D
:10089000F894DEBF0FBECDBF789484B5826084BD6E
:1008A00084B5816084BD85B5826085BD85B5816074
:1008B00085BD80916E00816080936E0010928100F2
:1008C00080918100826080938100809181008160AD
:1008D000809381008091800081608093800080916E
:1008E000B10084608093B1008091B00081608093FA
:1008F000B00080917A00846080937A0080917A00C1
:10090000826080937A0080917A00816080937A007F
:1009100080917A00806880937A001092C10082E012
:100920000E949F02E0914901F0914A0182E0808398
:10093000E0914501F09146011082E0914701F0916C
:1009400048018FEC808310925101E0914D01F091AC
:100950004E0186E08083E0914B01F0914C01808153
:1009600080618083E0914B01F0914C01808188602F
:100970008083E0914B01F0914C01808180688083FD
:10098000E0914B01F0914C0180818F7D8083E1E00B
:100990008091E9018111E0E0E195F0E0EA52FE4F3B
:1009A000848980680E9499026EE171E086ED91E091
:1009B0000E94470381E4D82E9AE0892E912CA12C25
:1009C000B12C20E0E22E20E0F22ED0927C0080912B
:1009D0007A00806480937A0080917A0086FDFCCF53
:1009E00090917800809179008927982789279093A2
:1009F0003801809337012C01092E000C6608770816
:100A000097FF51C06DE289E391E00E9446012227E1
:100A10003327A901241935094609570919A28E015E
:100A20000F5D1F4FCA01B901A50194010E9469051C
:100A3000605DF80162938F01211531054105510573
:100A400089F70115110529F0B80189E391E00E94A9
:100A5000470366E271E089E391E00E944703E1E029
:100A60008091E9018111E0E0E195F0E0EA52FE4F6A
:100A70008489885F80680E94990260913701709133
:100A80003801675D7E4F86ED91E00E944703E114D7
:100A9000F10409F49ACF0E941001882309F495CF3C
:100AA0000E94000092CFA301920119A28E010F5D56
:100AB0001F4FCA01B901A50194010E946905605D3B
:100AC000F80162938F01211531054105510589F720
:100AD000B8CFA1E21A2EAA1BBB1BFD010DC0AA1F95
:100AE000BB1FEE1FFF1FA217B307E407F50720F097
:100AF000A21BB30BE40BF50B661F771F881F991F12
:100B00001A9469F760957095809590959B01AC015A
:100B1000BD01CF010895EE0FFF1F0590F491E02D68
:060B20000994F894FFCFD8
:100B2600000000004601A600D30093010401E20084
:100B3600F600000000004103A6000002FF01506F0E
:0E0B46006D6961723A000D0A00202020000047
:00000001FF
