:100000000C945D000C9485000C9485000C94850084
:100010000C9485000C9485000C9485000C9485004C
:100020000C9485000C9485000C9485000C9485003C
:100030000C9485000C9485000C9485000C9485002C
:100040000C9489020C9485000C9457020C94310294
:100050000C9485000C9485000C9485000C9485000C
:100060000C9485000C94850000000008000201003B
:100070000003040700000000000000000000000072
:10008000250028002B0000000000240027002A0083
:10009000040404040404040402020202020203032E
:1000A0000303030301020408102040800102040836
:1000B0001020010204081020550411241FBECFEFA8
:1000C000D8E0DEBFCDBF11E0A0E0B1E0EAEBFBE09D
:1000D00002C005900D92AE31B107D9F721E0AEE133
:1000E000B1E001C01D92A43CB207E1F710E0CDE5FC
:1000F000D0E004C02197FE010E94D505CC35D10780
:10010000C9F70E94D3020C94DB050C94000090E028
:10011000FC01EC55FF4F249180579F4FFC018491C7
:10012000882399F090E0880F991FFC01EA57FF4F50
:10013000A591B491FC01E458FF4F859194918FB73C
:10014000F894EC91E22BEC938FBF0895AF92BF929D
:10015000CF92DF92EF92FF920F931F93CF93DF9393
:100160006C017B018B01040F151FEB015E01AE18C2
:10017000BF08C017D10759F06991D601ED91FC91E4
:100180000190F081E02DC6010995892B79F7C50111
:10019000DF91CF911F910F91FF90EF90DF90CF9063
:1001A000BF90AF900895FC01538D448D252F30E012
:1001B000842F90E0821B930B541710F0CF96089574
:1001C00001970895FC01918D828D981761F0A28DA1
:1001D000AE0FBF2FB11D5D968C91928D9F5F9F7367
:1001E000928F90E008958FEF9FEF0895FC01918D1D
:1001F000828D981731F0828DE80FF11D858D90E08A
:1002000008958FEF9FEF0895FC01918D228D892F26
:1002100090E0805C9F4F821B91098F73992708950E
:1002200087E291E00E94040121E0892B09F420E09B
:10023000822F089580E090E0892B29F00E94100120
:1002400081110C9400000895FC01A48DA80FB92F12
:10025000B11DA35ABF4F2C91848D90E001968F73EE
:100260009927848FA689B7892C93A089B1898C910D
:10027000837080648C93938D848D981306C002885C
:10028000F389E02D80818F7D80830895EF92FF9226
:100290000F931F93CF93DF93EC0181E0888F9B8DA9
:1002A0008C8D98131AC0E889F989808185FF15C063
:1002B0009FB7F894EE89FF896083E889F989808186
:1002C0008370806480839FBF81E090E0DF91CF9155
:1002D0001F910F91FF90EF900895F62E0B8D10E077
:1002E0000F5F1F4F0F731127E02E8C8D8E110CC0E6
:1002F0000FB607FCFACFE889F989808185FFF5CF31
:10030000CE010E942401F1CFEB8DEC0FFD2FF11DEA
:10031000E35AFF4FF0829FB7F8940B8FEA89FB896D
:1003200080818062CFCFCF93DF93EC01888D8823CB
:10033000B9F0AA89BB89E889F9898C9185FD03C048
:10034000808186FD0DC00FB607FCF7CF8C9185FF2D
:10035000F2CF808185FFEDCFCE010E942401E9CF4D
:10036000DF91CF91089590E0FC01E859FF4F24916F
:10037000FC01EC55FF4F3491FC01E057FF4FE49135
:10038000EE23C9F0222339F0233001F1A8F4213003
:1003900019F1223029F1F0E0EE0FFF1FE458FF4F72
:1003A000A591B4918FB7F894EC91611126C0309566
:1003B0003E233C938FBF08952730A9F02830C9F021
:1003C000243049F7809180008F7D03C080918000A8
:1003D0008F7780938000DFCF84B58F7784BDDBCFAC
:1003E00084B58F7DFBCF8091B0008F778093B00074
:1003F000D2CF8091B0008F7DF9CF3E2BDACF3FB7BF
:10040000F8948091230190912401A0912501B0914D
:10041000260126B5A89B05C02F3F19F00196A11D06
:10042000B11D3FBFBA2FA92F982F8827BC01CD013E
:10043000620F711D811D911D42E0660F771F881F9D
:10044000991F4A95D1F70895FC0101900020E9F722
:100450003197AF01481B590BBC0187E291E00C9426
:10046000A6001F920F920FB60F9211242F933F9365
:100470004F935F936F937F938F939F93AF93BF93AC
:10048000EF93FF9387E291E00E942401FF91EF91A7
:10049000BF91AF919F918F917F916F915F914F919C
:1004A0003F912F910F900FBE0F901F9018951F92A4
:1004B0000F920FB60F9211242F938F939F93EF9368
:1004C000FF93E0913701F09138018081E0913D0187
:1004D000F0913E0182FD1BC09081809140018F5FB1
:1004E0008F7320914101821741F0E0914001F0E0CB
:1004F000E95DFE4F958F80934001FF91EF919F91B1
:100500008F912F910F900FBE0F901F9018958081A3
:10051000F4CF1F920F920FB60F9211242F933F9397
:100520008F939F93AF93BF9380911F019091200170
:10053000A0912101B091220130911E0123E0230FEF
:100540002D3758F50196A11DB11D20931E018093F2
:100550001F0190932001A0932101B093220180916B
:10056000230190912401A0912501B09126010196CB
:10057000A11DB11D8093230190932401A093250117
:10058000B0932601BF91AF919F918F913F912F9191
:100590000F900FBE0F901F90189526E8230F02961C
:1005A000A11DB11DD2CFCF93DF93CDB7DEB7A197F9
:1005B0000FB6F894DEBF0FBECDBF789484B58260CD
:1005C00084BD84B5816084BD85B5826085BD85B5F7
:1005D000816085BD80916E00816080936E00109275
:1005E00081008091810082608093810080918100F0
:1005F0008160809381008091800081608093800081
:100600008091B10084608093B1008091B0008160DE
:100610008093B00080917A00846080937A0080910A
:100620007A00826080937A0080917A008160809362
:100630007A0080917A00806880937A001092C100DD
:10064000E0913701F091380182E08083E09133013D
:10065000F09134011082E0913501F09136018FEC78
:10066000808310923F01E0913B01F0913C0186E0D4
:100670008083E0913901F0913A018081806180832B
:10068000E0913901F0913A01808188608083E091A6
:100690003901F0913A01808180688083E0913901CD
:1006A000F0913A0180818F7D808389E00E948700EC
:1006B00088E00E94870090E4392E2AE0422E512CD7
:1006C000612C712C30927C0080917A008064809340
:1006D0007A0080917A0086FDFCCF6091780070915D
:1006E0007900072E000C880B990B0E94BA0420EDAC
:1006F0003FE34FE75EE30E941E050E9482046B0108
:100700008B0160E0023411050CF461E088E00E9486
:10071000B30189E00E9487000115110509F068C046
:1007200060E089E00E94B30182E191E00E9424022E
:100730000D2C000CEE08FF08F7FEA1C06DE287E269
:1007400091E00E94460122273327A9012C193D0977
:100750004E095F0919A28E010F5D1F4FCA01B90131
:10076000A30192010E94B305605DF80162938F01BD
:10077000211531054105510589F70115110519F0BC
:10078000C8010E9424028AE191E00E9424020E9492
:10079000FF014B015C018EE1C82ED12CE12CF12C24
:1007A0000E94FF01681979098A099B09683E734014
:1007B00081059105A8F3F1E0CF1AD108E108F1080D
:1007C00028EE820E23E0921EA11CB11CC114D1049C
:1007D000E104F10429F780E090E0892B09F472CF5D
:1007E0000E941001882309F46DCF0E9400006ACF97
:1007F0000F3F110511F461E094CFE1E7F0E084913F
:10080000833019F140F48130B1F08230C9F0003802
:1008100011058CF785CF873011F1883041F1843094
:10082000B1F780918000806280938000D0928B002D
:10083000C0928A0079CF84B5806884BDC7BC74CF6C
:1008400084B5806284BDC8BC6FCF80918000806811
:1008500080938000D0928900C092880065CF8091FB
:10086000B00080688093B000C092B3005DCF8091EB
:10087000B00080628093B000C092B40055CFA70151
:10088000960119A28E010F5D1F4FCA01B901A30184
:1008900092010E94B305605DF80162938F012115FA
:1008A00031054105510589F768CFE7E2F1E0138290
:1008B000128288EE93E0A0E0B0E084839583A68363
:1008C000B78384E091E09183808385EC90E0958705
:1008D000848784EC90E09787868780EC90E0918B0A
:1008E000808B81EC90E0938B828B82EC90E0958BF7
:1008F000848B86EC90E0978B868B118E128E138EF4
:10090000148E08950E9489046894B1110C941805FE
:1009100008950E94FD0488F09F5798F0B92F9927F9
:10092000B751B0F0E1F0660F771F881F991F1AF0DA
:10093000BA95C9F714C0B13091F00E941705B1E023
:1009400008950C941705672F782F8827B85F39F022
:10095000B93FCCF3869577956795B395D9F73EF473
:1009600090958095709561957F4F8F4F9F4F08951B
:10097000E89409C097FB3EF4909580957095619539
:100980007F4F8F4F9F4F9923A9F0F92F96E9BB27EF
:100990009395F695879577956795B795F111F8CF6B
:1009A000FAF4BB0F11F460FF1BC06F5F7F4F8F4FD6
:1009B0009F4F16C0882311F096E911C0772321F0CC
:1009C0009EE8872F762F05C0662371F096E8862F64
:1009D00070E060E02AF09A95660F771F881FDAF7BB
:1009E000880F9695879597F9089557FD9058440F6D
:1009F000551F59F05F3F71F04795880F97FB991F7E
:100A000061F09F3F79F0879508951216130614063A
:100A1000551FF2CF4695F1DF08C0161617061806C7
:100A2000991FF1CF86957105610508940895E894A2
:100A3000BB2766277727CB0197F908950E943105D8
:100A40000C94A2050E94940538F00E949B0520F0AA
:100A5000952311F00C948B050C94910511240C94A2
:100A600018050E94F50470F3959FC1F3950F50E0AF
:100A7000551F629FF001729FBB27F00DB11D639F50
:100A8000AA27F00DB11DAA1F649F6627B00DA11DF6
:100A9000661F829F2227B00DA11D621F739FB00D9C
:100AA000A11D621F839FA00D611D221F749F33270C
:100AB000A00D611D231F849F600D211D822F762FA5
:100AC0006A2F11249F5750409AF0F1F088234AF082
:100AD000EE0FFF1FBB1F661F771F881F91505040EE
:100AE000A9F79E3F510580F00C948B050C941805D6
:100AF0005F3FE4F3983ED4F3869577956795B79575
:100B0000F795E7959F5FC1F7FE2B880F911D96958E
:100B1000879597F9089597F99F6780E870E060E0FE
:100B200008959FEF80EC089500240A941616170686
:100B300018060906089500240A94121613061406CE
:100B400005060895092E0394000C11F4882352F031
:100B5000BB0F40F4BF2B11F460FF04C06F5F7F4FE9
:100B60008F4F9F4F0895A1E21A2EAA1BBB1BFD01B8
:100B70000DC0AA1FBB1FEE1FFF1FA217B307E4077C
:100B8000F50720F0A21BB30BE40BF50B661F771FD4
:100B9000881F991F1A9469F76095709580959095B4
:100BA0009B01AC01BD01CF010895EE0FFF1F059021
:0A0BB000F491E02D0994F894FFCFB2
:100BBA00000000004601A600D30093010401E200F0
:0E0BCA00F60053706565643A20000D0A0000C5
:00000001FF
