:020000040000FA
:100000000C9462000C948A000C948A000C948A0070
:100010000C948A000C948A000C948A000C948A0038
:100020000C948A000C948A000C948A000C948A0028
:100030000C948A000C948A000C948A000C948A0018
:100040000C942B030C948A000C948A000C948A0064
:100050000C948A000C948A000C948A000C948A00F8
:100060000C948A000C948A000000000024002700F1
:100070002A0000000000250028002B0000000008D6
:10008000000201000003040700000000000000005F
:1000900000000000230026002900040404040404D6
:1000A0000404020202020202030303030303010227
:1000B00004081020408001020408102001020408F6
:1000C0001020CA0411241FBECFEFD8E0DEBFCDBF81
:1000D00011E0A0E0B1E0E4ECFCE002C005900D927C
:1000E000A232B107D9F721E0A2E2B1E001C01D922E
:1000F000A734B207E1F710E0C2E6D0E004C02197D0
:10010000FE010E945A06C136D107C9F70E94BA0300
:100110000C9460060C940000AF92BF92CF92DF92D5
:10012000EF92FF920F931F93CF93DF936C017B01AC
:100130008B01040F151FEB015E01AE18BF08C0173D
:10014000D10759F06991D601ED91FC910190F081B0
:10015000E02DC6010995892B79F7C501DF91CF9173
:100160001F910F91FF90EF90DF90CF90BF90AF90D5
:10017000089590E0FC01E458FF4F2491FC01E25502
:10018000FF4F3491FC01E656FF4FE491EE23C9F096
:10019000222339F0233001F1A8F4213019F1223063
:1001A00029F1F0E0EE0FFF1FEE58FF4FA591B4913B
:1001B0008FB7F894EC91611126C030953E233C93A3
:1001C0008FBF08952730A9F02830C9F0243049F7AF
:1001D000809180008F7D03C0809180008F77809315
:1001E0008000DFCF84B58F7784BDDBCF84B58F7D72
:1001F000FBCF8091B0008F778093B000D2CF8091F9
:10020000B0008F7DF9CF3E2BDACFCF93DF9390E014
:10021000FC01E255FF4F249186569F4FFC018491CB
:100220008823D1F090E0880F991FFC01E859FF4F17
:10023000A591B491FC01EE58FF4FC591D491611185
:100240000EC09FB7F8948C91E22FE0958E238C938B
:100250002881E223E8839FBFDF91CF9108958FB774
:10026000F894EC91E22BEC938FBFF6CF3FB7F89464
:100270008091270190912801A0912901B0912A0134
:1002800026B5A89B05C02F3F19F00196A11DB11DF1
:100290003FBFBA2FA92F982F8827BC01CD01620F2D
:1002A000711D811D911D42E0660F771F881F991FE8
:1002B0004A95D1F70895089590E080E008958F92CF
:1002C0009F92AF92BF920F931F93CF93DF93CDB7BF
:1002D000DEB7A1970FB6F894DEBF0FBECDBF19A24F
:1002E000423008F44AE08E010F5D1F4F842E912C9E
:1002F000B12CA12CA50194010E941906E62FB90189
:10030000CA01EA3044F5E05DD801EE938D01232B5C
:10031000242B252B79F790E080E0109769F0FD0100
:1003200001900020E9F73197AF014A1B5B0BBD013B
:100330008FE291E00E948C00A1960FB6F894DEBF88
:100340000FBECDBFDF91CF911F910F91BF90AF90A6
:100350009F908F900895E95CD7CFFC010190002019
:10036000E9F73197AF01481B590BBC018FE291E0CF
:100370000C948C00CF93DF93EC0160E08E810E949F
:10038000B90061E08E810E94B90060E08E810E9418
:10039000B9008BE891E00197F1F7DF91CF910895D3
:1003A000CF92DF92EF92FF920F931F93CF93DF9341
:1003B0006C017C0187E0E80EF11CD0E0C0E0062F64
:1003C00010E0B8010C2E02C0759567950A94E2F70B
:1003D0006170F70181917F010E94B9002196C430BC
:1003E000D10579F7C601DF91CF911F910F91FF9051
:1003F000EF90DF90CF900C94BA01CF92DF92EF9202
:10040000FF920F931F93CF93DF93EC01F62E642F8F
:100410008C810E94B9008D818F3F19F060E00E94AD
:10042000B9000F2D10E08F8584FF25C06E0187E095
:10043000C80ED11CF12CE12CB8010E2C02C0759510
:1004400067950A94E2F76170F60181916F010E944D
:10045000B900FFEFEF1AFF0A88E0E816F10461F730
:10046000CE01DF91CF911F910F91FF90EF90DF9020
:10047000CF900C94BA01B80184E0759567958A9580
:10048000E1F7CE010E94D0016F2DCE01DF91CF9117
:100490001F910F91FF90EF90DF90CF900C94D001BF
:1004A00040E0682F8FE291E00C94FD01CF93DF9341
:1004B000823029F490913E01986090933E018093A0
:1004C00042011092430180E48093440180E18093D3
:1004D000450180E58093460161E0809133010E94EF
:1004E0000501809134018F3F19F061E00E94050100
:1004F00061E0809135010E940501CFE2D1E09E01CB
:100500002F52314080913E0184FD0BC084E090E089
:1005100021962817390744F461E08E810E94050175
:10052000EECF88E090E0F4CF8BE39DE00197F1F708
:1005300060E0809133010E94B90060E08091350154
:100540000E94B900809134018F3F19F060E00E9451
:10055000B90080913E0184FD39C063E08FE291E0F3
:100560000E94D001CBE4D6E4CE010197F1F763E01D
:100570008FE291E00E94D0012197F1F763E08FE2D2
:1005800091E00E94D00183E592E00197F1F762E0EB
:100590008FE291E00E94D00180913E0180620E9432
:1005A000500284E080933F018CE00E94500281E081
:1005B0000E9450028BE39FE10197F1F782E0809364
:1005C000400186E0DF91CF910C94500280620E943E
:1005D00050028BE496E40197F1F780913E0180622E
:1005E0000E94500283E592E00197F1F780913E016D
:1005F00080620E945002D0CF41E00E94FD0181E064
:1006000090E00895CF92DF92EF92FF926C01990FE4
:10061000EE08FF08F7FE16C041E06DE28FE291E0C0
:100620000E94FD0166277727CB016C197D098E0991
:100630009F094AE00E945F010196FF90EF90DF90D2
:10064000CF9008954AE0C701B601FF90EF90DF9088
:10065000CF900C945F011F920F920FB60F9211244E
:100660002F933F938F939F93AF93BF9380912301D9
:1006700090912401A0912501B09126013091220191
:1006800023E0230F2D3758F50196A11DB11D2093AE
:1006900022018093230190932401A0932501B0931C
:1006A00026018091270190912801A0912901B09104
:1006B0002A010196A11DB11D809327019093280165
:1006C000A0932901B0932A01BF91AF919F918F917F
:1006D0003F912F910F900FBE0F901F90189526E815
:1006E000230F0296A11DB11DD2CFCF92DF92EF92C0
:1006F000FF920F931F93E82FF92F05C001501109A6
:100700002109310961F1908196239417B9F305C04D
:10071000015011092109310911F190819623941397
:10072000F7CFC12CD12CE12CF12C0AC08FEFC81AC5
:10073000D80AE80AF80A0C151D052E053F0579F0C0
:1007400080818623841791F36C2D7D2D8E2D9F2D16
:100750001F910F91FF90EF90DF90CF90089560E090
:1007600070E080E090E01F910F91FF90EF90DF909C
:10077000CF900895789484B5826084BD84B58160FB
:1007800084BD85B5826085BD85B5816085BD80915C
:100790006E00816080936E001092810080918100D4
:1007A00082608093810080918100816080938100CC
:1007B000809180008160809380008091B10084608E
:1007C0008093B1008091B00081608093B0008091EF
:1007D0007A00846080937A0080917A0082608093AE
:1007E0007A0080917A00816080937A0080917A000B
:1007F000806880937A001092C10082E00E945602C5
:1008000061E089E00E94050160E08AE00E94050144
:1008100023E2222E312C3AE3432E512C612C712CF1
:10082000C0E0D0E060E089E00E94B90083E090E0A1
:100830000197F1F761E089E00E94B900C1010197D9
:10084000F1F760E089E00E94B900E8EBF0E0649124
:10085000E4EAF0E08491E82FF0E0EE0FFF1FE057AC
:10086000FF4F8591949100E412E42FE030E0462F91
:100870000E9475036B017C01C114D104E104F104F1
:1008800039F0FFEFCF1ADF0AEF0AFF0A2FE0F2225A
:10089000C701B601A30192010E943B0630932E01CD
:1008A00020932D01C701B6010E9420052EE338EEEA
:1008B00049E55CE30E94840520E030E040E05FE32E
:1008C0000E9484050E94E80470932C0160932B0120
:1008D000E1E0809142018111E0E0E195F0E0E15D2D
:1008E000FE4F848980680E9450028CE091E00E9453
:1008F000AD0180912D0190912E010E94020387E1AC
:1009000091E00E94AD01E0914201E23008F040C068
:10091000E150F0E0E15DFE4F848980680E94500262
:100920008CE091E00E94AD0180912B0190912C010F
:100930000E9402038BE191E00E94AD010E9436010A
:100940004B015C018AE0C82ED12CE12CF12C0E94D5
:100950003601681979098A099B09683E7340810547
:100960009105A8F381E0C81AD108E108F108E8EE82
:100970008E0EE3E09E1EA11CB11CC114D104E10443
:10098000F10429F7209709F44DCF0E9400004ACFC7
:10099000E1E0BFCFEFE2F1E01382128284E091E068
:1009A0009183808382E084838FEF858383E08683D5
:1009B00084E0878385E0808786E0818787E082877F
:1009C0001386148615861686178681E00C945602C7
:1009D0000E94EF046894B1110C947E0508950E9462
:1009E000630588F09F5798F0B92F9927B751B0F059
:1009F000E1F0660F771F881F991F1AF0BA95C9F7A3
:100A000014C0B13091F00E947D05B1E008950C94BE
:100A10007D05672F782F8827B85F39F0B93FCCF371
:100A2000869577956795B395D9F73EF4909580951F
:100A3000709561957F4F8F4F9F4F0895E89409C03F
:100A400097FB3EF490958095709561957F4F8F4F01
:100A50009F4F9923A9F0F92F96E9BB279395F69517
:100A6000879577956795B795F111F8CFFAF4BB0F95
:100A700011F460FF1BC06F5F7F4F8F4F9F4F16C0F9
:100A8000882311F096E911C0772321F09EE8872F83
:100A9000762F05C0662371F096E8862F70E060E03F
:100AA0002AF09A95660F771F881FDAF7880F9695B8
:100AB000879597F9089557FD9058440F551F59F0A1
:100AC0005F3F71F04795880F97FB991F61F09F3F3B
:100AD00079F087950895121613061406551FF2CF64
:100AE0004695F1DF08C0161617061806991FF1CFB4
:100AF00086957105610508940895E894BB276627DB
:100B00007727CB0197F908950E9497050C94080662
:100B10000E94FA0538F00E94010620F0952311F09A
:100B20000C94F1050C94F70511240C947E050E9499
:100B30005B0570F3959FC1F3950F50E0551F629FC1
:100B4000F001729FBB27F00DB11D639FAA27F00D26
:100B5000B11DAA1F649F6627B00DA11D661F829F4D
:100B60002227B00DA11D621F739FB00DA11D621F32
:100B7000839FA00D611D221F749F3327A00D611D4F
:100B8000231F849F600D211D822F762F6A2F112431
:100B90009F5750409AF0F1F088234AF0EE0FFF1F64
:100BA000BB1F661F771F881F91505040A9F79E3FBB
:100BB000510580F00C94F1050C947E055F3FE4F341
:100BC000983ED4F3869577956795B795F795E79511
:100BD0009F5FC1F7FE2B880F911D9695879597F91A
:100BE000089597F99F6780E870E060E008959FEFAF
:100BF00080EC089500240A941616170618060906B4
:100C0000089500240A941216130614060506089582
:100C1000092E0394000C11F4882352F0BB0F40F40A
:100C2000BF2B11F460FF04C06F5F7F4F8F4F9F4F4A
:100C30000895A1E21A2EAA1BBB1BFD010DC0AA1F1D
:100C4000BB1FEE1FFF1FA217B307E407F50720F035
:100C5000A21BB30BE40BF50B661F771F881F991FB0
:100C60001A9469F760957095809590959B01AC01F9
:100C7000BD01CF010895052E97FB1EF400940E943C
:100C8000520657FD07D00E94190607FC03D04EF408
:100C90000C94520650954095309521953F4F4F4FFB
:100CA0005F4F089590958095709561957F4F8F4F18
:100CB0009F4F0895EE0FFF1F0590F491E02D0994CA
:100CC000F894FFCF00000000FC028C005C015B0187
:100CD00044697374616E63653A200020636D00207F
:060CE000696E636800006C
:107E0000112484B714BE81FFF0D085E080938100F7
:107E100082E08093C00088E18093C10086E0809377
:107E2000C20080E18093C4008EE0C9D0259A86E02C
:107E300020E33CEF91E0309385002093840096BBD3
:107E4000B09BFECF1D9AA8958150A9F7CC24DD24C4
:107E500088248394B5E0AB2EA1E19A2EF3E0BF2EE7
:107E6000A2D0813461F49FD0082FAFD0023811F036
:107E7000013811F484E001C083E08DD089C08234E0
:107E800011F484E103C0853419F485E0A6D080C0E4
:107E9000853579F488D0E82EFF2485D0082F10E0AE
:107EA000102F00270E291F29000F111F8ED06801E7
:107EB0006FC0863521F484E090D080E0DECF843638
:107EC00009F040C070D06FD0082F6DD080E0C81688
:107ED00080E7D80618F4F601B7BEE895C0E0D1E017
:107EE00062D089930C17E1F7F0E0CF16F0E7DF06D8
:107EF00018F0F601B7BEE89568D007B600FCFDCFD4
:107F0000A601A0E0B1E02C9130E011968C91119780
:107F100090E0982F8827822B932B1296FA010C0160
:107F200087BEE89511244E5F5F4FF1E0A038BF0790
:107F300051F7F601A7BEE89507B600FCFDCF97BE46
:107F4000E89526C08437B1F42ED02DD0F82E2BD052
:107F50003CD0F601EF2C8F010F5F1F4F84911BD097
:107F6000EA94F801C1F70894C11CD11CFA94CF0C13
:107F7000D11C0EC0853739F428D08EE10CD085E9AC
:107F80000AD08FE07ACF813511F488E018D01DD067
:107F900080E101D065CF982F8091C00085FFFCCF94
:107FA0009093C60008958091C00087FFFCCF809118
:107FB000C00084FD01C0A8958091C6000895E0E648
:107FC000F0E098E1908380830895EDDF803219F02E
:107FD00088E0F5DFFFCF84E1DECF1F93182FE3DFCA
:107FE0001150E9F7F2DF1F91089580E0E8DFEE27F6
:047FF000FF270994CA
:027FFE00040479
:00000001FF
