:020000040000FA
:100000000C9428010C9450010C9450010C94500154
:100010000C9450010C9450010C9450010C9450011C
:100020000C9450010C9450010C9450010C9450010C
:100030000C9450010C9450010C9450010C945001FC
:100040000C947A050C9450010C9448050C942205EC
:100050000C9450010C9450010C9450010C945001DC
:100060000C94C4050C9450010000000025002800E9
:100070002B00040404040404040402020202020229
:10008000030303030303010204081020408001025C
:1000900004081020010204081020000000080002DB
:1000A00001000003040700000000000000005B42A4
:1000B00048313735305D204552524F523A20756EE7
:1000C000646566696E6564206572726F72005B427A
:1000D00048313735305D204552524F523A206F74C7
:1000E000686572206572726F72005B424831373505
:1000F000305D204552524F523A20726563656976F1
:100100006564204E41434B206F6E207472616E73A4
:100110006D6974206F662064617461005B424831D0
:100120003735305D204552524F523A207265636533
:1001300069766564204E41434B206F6E2074726176
:100140006E736D6974206F66206164647265737389
:10015000005B4248313735305D204552524F523AAC
:1001600020746F6F206C6F6E6720666F72207472E0
:10017000616E736D697420627566666572005B42BC
:1001800048313735305D204552524F523A20756E16
:10019000646566696E6564206572726F72005B42A9
:1001A00048313735305D204552524F523A206F74F6
:1001B000686572206572726F72005B424831373534
:1001C000305D204552524F523A2072656365697620
:1001D0006564204E41434B206F6E207472616E73D4
:1001E0006D6974206F662064617461005B42483100
:1001F0003735305D204552524F523A207265636563
:1002000069766564204E41434B206F6E20747261A5
:100210006E736D6974206F662061646472657373B8
:10022000005B4248313735305D204552524F523ADB
:1002300020746F6F206C6F6E6720666F722074720F
:10024000616E736D69742062756666657200DF06A3
:1002500011241FBECFEFD8E0DEBFCDBF11E0A0E07C
:10026000B1E0EEE8F0E102C005900D92A832B107CE
:10027000D9F722E0A8E2B1E001C01D92AD37B20784
:10028000E1F711E0C8E2D1E004C02197FE010E942D
:100290003F08C732D107C9F70E942F070C944508C1
:1002A0000C940000FC01538D448D252F30E0842FE9
:1002B00090E0821B930B541710F0CF96089501978E
:1002C0000895FC01918D828D981761F0A28DAE0F7B
:1002D000BF2FB11D5D968C91928D9F5F9F73928F02
:1002E00090E008958FEF9FEF0895FC01918D828D2E
:1002F000981731F0828DE80FF11D858D90E00895FB
:100300008FEF9FEF0895FC01918D228D892F90E052
:10031000805C9F4F821B91098F7399270895FC0180
:10032000A48DA80FB92FB11DA35ABF4F2C91848D56
:1003300090E001968F739927848FA689B7892C93B3
:10034000A089B1898C91837080648C93938D848D06
:10035000981306C00288F389E02D80818F7D808309
:100360000895EF92FF920F931F93CF93DF93EC01C9
:1003700081E0888F9B8D8C8D98131AC0E889F9894C
:10038000808185FF15C09FB7F894EE89FF8960834F
:10039000E889F98980818370806480839FBF81E0D0
:1003A00090E0DF91CF911F910F91FF90EF90089512
:1003B000F62E0B8D10E00F5F1F4F0F731127E02EED
:1003C0008C8D8E110CC00FB607FCFACFE889F98925
:1003D000808185FFF5CFCE010E948F01F1CFEB8D9B
:1003E000EC0FFD2FF11DE35AFF4FF0829FB7F894F9
:1003F0000B8FEA89FB8980818062CFCFCF93DF9317
:10040000EC01888D8823B9F0AA89BB89E889F9892C
:100410008C9185FD03C0808186FD0DC00FB607FC61
:10042000F7CF8C9185FFF2CF808185FFEDCFCE0194
:100430000E948F01E9CFDF91CF91089586EC91E082
:100440000E94830121E0892B09F420E0822F089586
:1004500080E090E0892B29F00E941E0281110C940B
:1004600000000895AF92BF92CF92DF92EF92FF9279
:100470000F931F93CF93DF936C017B018B01040FCC
:10048000151FEB015E01AE18BF08C017D10759F068
:100490006991D601ED91FC910190F081E02DC601AA
:1004A0000995892B79F7C501DF91CF911F910F91A4
:1004B000FF90EF90DF90CF90BF90AF9008950F9393
:1004C0001F93CF93DF938C01D0E0C0E0F801EC0FD5
:1004D000FD1F6491662341F086EC91E00E94B1011A
:1004E000892B11F02196F2CF42E050E064E271E0F6
:1004F00086EC91E00E9432028C0F9D1FDF91CF911C
:100500001F910F91089590E0FC01E656FF4F249152
:10051000FC01EA57FF4F3491FC01EE58FF4FE49184
:10052000EE23C9F0222339F0233001F1A8F4213061
:1005300019F1223029F1F0E0EE0FFF1FE859FF4FCB
:10054000A591B4918FB7F894EC91611126C03095C4
:100550003E233C938FBF08952730A9F02830C9F07F
:10056000243049F7809180008F7D03C08091800006
:100570008F7780938000DFCF84B58F7784BDDBCF0A
:1005800084B58F7DFBCF8091B0008F778093B000D2
:10059000D2CF8091B0008F7DF9CF3E2BDACF3FB71D
:1005A000F8948091BA019091BB01A091BC01B091E7
:1005B000BD0126B5A89B05C02F3F19F00196A11DCE
:1005C000B11D3FBFBA2FA92F982F8827BC01CD019D
:1005D000620F711D811D911D42E0660F771F881FFC
:1005E000991F4A95D1F708958F929F92AF92BF922B
:1005F000CF92DF92EF92FF920E94CF024B015C01FB
:100600008AE0C82ED12CE12CF12C0E94CF0268196F
:1006100079098A099B09683E734081059105A8F311
:1006200021E0C21AD108E108F10888EE880E83E0C3
:10063000981EA11CB11CC114D104E104F10429F7D6
:10064000FF90EF90DF90CF90BF90AF909F908F90F2
:100650000895DC01ED91FC910190F081E02D099469
:100660001F93CF93DF93C1E0C0934E01882399F18C
:10067000D091B8001091BA008091BC008A7B809321
:10068000BC0060E082E10E94830260E083E10E949E
:10069000830210929301C09395011092940161E03E
:1006A00082E10E94830261E083E10E9483028091E3
:1006B000B9008E7F8093B9008091B9008D7F8093BF
:1006C000B90088E48093B80085E48093BC0010935F
:1006D000BA00D093B800DF91CF911F910895209177
:1006E0006F01260F3327331F21323105ECF420919F
:1006F0009301FC0190E080E0243069F082E00895ED
:10070000A0916F012191AC01415B5E4FA40FB52F09
:10071000B11D2C930196861798F380916F01680F95
:1007200060936F0180E0089581E0089508958FEF50
:100730009FEF08958FEF9FEF08958091480190E01B
:100740009195819591090895CF92DF92EF92FF9252
:100750000F931F93CF93DF937C01CB018A012091EC
:10076000C501222389F0EB016B01C40ED51ECC1507
:10077000DD0569F06991D701ED91FC910190F0815F
:10078000E02DC7010995F3CF642F0E946F03C801C4
:10079000DF91CF911F910F91FF90EF90DF90CF905D
:1007A0000895CF93DF931F92CDB7DEB76983209171
:1007B000C5012223F9F02091C201203258F021E036
:1007C00030E0FC013383228390E080E00F90DF91E2
:1007D000CF9108958091C301E82FF0E0E85DFE4FCE
:1007E000998190838F5F8093C3018093C20181E0E0
:1007F00090E0ECCF61E0CE0101960E946F03F7CF4D
:10080000CF92DF92EF92FF920F931F93CF93DF93DC
:10081000D091C20181E0D13208F09CC0C091C401E6
:100820000E94CF026B017C018091930181116CC009
:1008300082E08093930181E0809395018FEF809314
:1008400092011092B701D093B601A8E2B1E0E6E9B7
:10085000F1E080E0D8138DC01092B8018091B8010A
:10086000CC0FC82BC093B80180919401813009F05E
:1008700084C0109294010E94CF026B017C01809190
:10088000B8018093BB0080914A0190914B01A091E7
:100890004C01B0914D01892B8A2B8B2BA1F00E942A
:1008A000CF0200914A0110914B0120914C013091EF
:1008B0004D016C197D098E099F0906171707280736
:1008C000390708F442C08091BC0083FDD8CF85EC85
:1008D0008093BC000E94CF026B017C018091930148
:1008E000823009F44CC0809192018F3F09F469C0B5
:1008F00080919201803209F466C080919201803328
:1009000009F463C084E026C080914A0190914B01B4
:10091000A0914C01B0914D01892B8A2B8B2B09F4AE
:1009200083CF0E94CF0200914A0110914B01209188
:100930004C0130914D016C197D098E099F090617F4
:1009400017072807390708F06FCF809149010E94E7
:10095000300385E01092C3011092C2011092C501CC
:10096000DF91CF911F910F91FF90EF90DF90CF908B
:1009700008959D9191938F5F6DCF85EEA9CF809162
:100980004A0190914B01A0914C01B0914D01892BEE
:100990008A2B8B2B09F4A2CF0E94CF0200914A012F
:1009A00010914B0120914C0130914D016C197D0942
:1009B0008E099F09061717072807390708F08ECFF9
:1009C000C4CF80E0C7CF82E0C5CF83E0C3CF90E043
:1009D00080E0089585ED8093BC0080914A0190915C
:1009E0004B01A0914C01B0914D010796A11DB11D85
:1009F00023E0B695A795979587952A95D1F72091ED
:100A0000BC0024FD03C010929301089540914A0157
:100A100050914B0160914C0170914D01452B462B3B
:100A2000472B69F30097A105B10541F025E32A950D
:100A3000F1F700000197A109B109E1CF80914901C7
:100A40000C9430031F920F920FB60F9211242F9324
:100A50003F934F935F936F937F938F939F93AF9346
:100A6000BF93EF93FF9386EC91E00E948F01FF917B
:100A7000EF91BF91AF919F918F917F916F915F9116
:100A80004F913F912F910F900FBE0F901F9018958F
:100A90001F920F920FB60F9211242F938F939F9353
:100AA000EF93FF93E091D601F091D7018081E0911F
:100AB000DC01F091DD0182FD1BC090818091DF019E
:100AC0008F5F8F732091E001821741F0E091DF0189
:100AD000F0E0EA53FE4F958F8093DF01FF91EF9195
:100AE0009F918F912F910F900FBE0F901F9018958F
:100AF0008081F4CF1F920F920FB60F9211242F9383
:100B00003F938F939F93AF93BF938091BE0190913A
:100B1000BF01A091C001B091C1013091B90123E0A2
:100B2000230F2D3758F50196A11DB11D2093B90152
:100B30008093BE019093BF01A093C001B093C10107
:100B40008091BA019091BB01A091BC01B091BD010F
:100B50000196A11DB11D8093BA019093BB01A09392
:100B6000BC01B093BD01BF91AF919F918F913F9117
:100B70002F910F900FBE0F901F90189526E8230F0E
:100B80000296A11DB11DD2CF1F920F920FB60F92E8
:100B900011242F933F934F935F936F937F938F9382
:100BA0009F93AF93BF93EF93FF938091B900887F9A
:100BB000803609F44AC0F0F5883209F4A5C018F56A
:100BC000803109F499C0B8F4882309F4F5C088305D
:100BD00009F492C0FF91EF91BF91AF919F918F91D6
:100BE0007F916F915F914F913F912F910F900FBE29
:100BF0000F901F901895883109F486C0803251F704
:100C00008093920114C0803409F49BC040F4803377
:100C1000B9F38833F9F68093920185ECAEC0803544
:100C200009F483C0883509F494C0883499F60E9489
:100C3000EA04D0CF883909F48AC038F5883729F01A
:100C400050F4883611F0803729F683E080939301C1
:100C50001092910155C0883809F479C0803919F093
:100C6000803809F0B7CF80919101803208F06FC0D1
:100C7000E091910181E08E0F809391018091BB0002
:100C8000F0E0EF58FE4F80833BC0803B39F0D0F45A
:100C9000803A09F477C0883A09F09CCF84E08093C9
:100CA00093011092700110926F01F0E0E0E009955D
:100CB00080916F0181110FC081E080936F011092CC
:100CC0004F0109C0803C09F4A8CF883C09F4A5CFA6
:100CD000883B09F07FCFE091700181E08E0F809317
:100CE0007001F0E0E15BFE4F80818093BB0090914A
:100CF000700180916F0129C08091B8018093BB0081
:100D000085EC8093BC0066CF9091B7018091B601CD
:100D1000981758F5E091B70181E08E0F8093B701E5
:100D2000F0E0EA56FE4F8081E9CFE091B70181E023
:100D30008E0F8093B7018091BB00F0E0EA56FE4F22
:100D400080839091B7018091B6019817C8F285E829
:100D5000D8CFE091B70181E08E0F8093B7018091E9
:100D6000BB00F0E0EA56FE4F80838091950181112F
:100D70005ECF81E08093940184EA8093BC0010925E
:100D8000930128CF85EC8093BC0010929301809151
:100D90009101803230F4E0919101F0E0EF58FE4F84
:100DA00010826091910170E081E791E0F0E0E0E075
:100DB0000995109291010ECF1092920138CFE6EC76
:100DC000F1E01382128248EE53E060E070E0448369
:100DD00055836683778384E091E09183808385ECFB
:100DE00090E09587848784EC90E09787868780ECF5
:100DF00090E0918B808B81EC90E0938B828B82ECE6
:100E000090E0958B848B86EC90E0978B868B118E8F
:100E1000128E138E148EA3E6B2E013961C921E92CD
:100E2000129714964D935D936D937C93179786E17B
:100E300091E011969C938E93EFE6F2E085E4818336
:100E40004AE959E969E97FE34283538364837583FF
:100E50001782168283E28083B187A08708957894F1
:100E600084B5826084BD84B5816084BD85B58260AF
:100E700085BD85B5816085BD80916E008160809360
:100E80006E001092810080918100826080938100C9
:100E900080918100816080938100809180008160D9
:100EA000809380008091B10084608093B100809134
:100EB000B00081608093B00080917A00846080935C
:100EC0007A0080917A00826080937A0080917A0023
:100ED000816080937A0080917A00806880937A00A4
:100EE0001092C10023E220936F02809177029091CB
:100EF0007802D1E0D093C5012093C4011092C301C0
:100F00001092C201DC01ED91FC910190F081E02D85
:100F100060E1099580917702909178020E94000427
:100F2000C82F0E94F402C23009F49FC048F4CC23B9
:100F3000E1F081E292E0C13059F08EE791E008C023
:100F40008AEB91E0C33021F08EE991E0C430A9F73B
:100F50000E945F02C0E0D0E02097F1F30E941E02E1
:100F60008823D1F30E940000F7CF80E190E09093B6
:100F70007602809375022FB7F8948091BE0190910C
:100F8000BF01A091C001B091C1012FBF8093790230
:100F900090937A02A0937B02B0937C0280917702B7
:100FA0009091780220916F02D093C5012093C401E3
:100FB0001092C3011092C20162E470E00E94290302
:100FC00080917702909178020E940004C82F80914E
:100FD00077029091780220916F02D093C5012093FF
:100FE000C4011092C3011092C20165E670E00E9434
:100FF000290380917702909178020E940004C82B07
:10100000809177029091780220916F02D093C50170
:101010002093C4011092C3011092C2016091750225
:10102000709176020E942903809177029091780254
:101030000E940004C82B0E94F402C230E9F050F470
:10104000CC23B1F081E591E0C13009F481CF8EEA83
:1010500090E07ECF8AEE90E0C33009F479CF8EEC39
:1010600090E0C43009F474CFF2CF8CEE91E070CFF1
:1010700085E4809370026ECF8CE191E069CFEE0F32
:10108000FF1F0590F491E02D0994F894FFCF000024
:101090000000B10132025201FE01830161017501BC
:1010A00000000000D103A403E70496039D039A0304
:0610B00097030D0A000089
:107E0000112484B714BE81FFF0D085E080938100F7
:107E100082E08093C00088E18093C10086E0809377
:107E2000C20080E18093C4008EE0C9D0259A86E02C
:107E300020E33CEF91E0309385002093840096BBD3
:107E4000B09BFECF1D9AA8958150A9F7CC24DD24C4
:107E500088248394B5E0AB2EA1E19A2EF3E0BF2EE7
:107E6000A2D0813461F49FD0082FAFD0023811F036
:107E7000013811F484E001C083E08DD089C08234E0
:107E800011F484E103C0853419F485E0A6D080C0E4
:107E9000853579F488D0E82EFF2485D0082F10E0AE
:107EA000102F00270E291F29000F111F8ED06801E7
:107EB0006FC0863521F484E090D080E0DECF843638
:107EC00009F040C070D06FD0082F6DD080E0C81688
:107ED00080E7D80618F4F601B7BEE895C0E0D1E017
:107EE00062D089930C17E1F7F0E0CF16F0E7DF06D8
:107EF00018F0F601B7BEE89568D007B600FCFDCFD4
:107F0000A601A0E0B1E02C9130E011968C91119780
:107F100090E0982F8827822B932B1296FA010C0160
:107F200087BEE89511244E5F5F4FF1E0A038BF0790
:107F300051F7F601A7BEE89507B600FCFDCF97BE46
:107F4000E89526C08437B1F42ED02DD0F82E2BD052
:107F50003CD0F601EF2C8F010F5F1F4F84911BD097
:107F6000EA94F801C1F70894C11CD11CFA94CF0C13
:107F7000D11C0EC0853739F428D08EE10CD085E9AC
:107F80000AD08FE07ACF813511F488E018D01DD067
:107F900080E101D065CF982F8091C00085FFFCCF94
:107FA0009093C60008958091C00087FFFCCF809118
:107FB000C00084FD01C0A8958091C6000895E0E648
:107FC000F0E098E1908380830895EDDF803219F02E
:107FD00088E0F5DFFFCF84E1DECF1F93182FE3DFCA
:107FE0001150E9F7F2DF1F91089580E0E8DFEE27F6
:047FF000FF270994CA
:027FFE00040479
:00000001FF
