:100000000C943F010C9467010C9467010C946701F8
:100010000C9467010C9467010C9467010C946701C0
:100020000C9467010C9467010C9467010C946701B0
:100030000C9467010C9467010C9467010C946701A0
:100040000C941B070C9467010C94E9060C94C306EE
:100050000C9467010C9467010C9467010C94670180
:100060000C9465070C946701000000080002010071
:100070000003040700000000000000005B4248315C
:100080003735305D204552524F523A20756E6465C7
:1000900066696E6564206572726F72005B424831FA
:1000A0003735305D204552524F523A206F746865A3
:1000B00072206572726F72005B4248313735305D75
:1000C000204552524F523A207265636569766564E5
:1000D000204E41434B206F6E207472616E736D69C8
:1000E00074206F662064617461005B42483137356B
:1000F000305D204552524F523A20726563656976F1
:100100006564204E41434B206F6E207472616E73A4
:100110006D6974206F662061646472657373005B3F
:100120004248313735305D204552524F523A2074A3
:100130006F6F206C6F6E6720666F72207472616ED5
:10014000736D697420627566666572005B42483142
:100150003735305D204552524F523A20756E6465F6
:1001600066696E6564206572726F72005B42483129
:100170003735305D204552524F523A206F746865D2
:1001800072206572726F72005B4248313735305DA4
:10019000204552524F523A20726563656976656414
:1001A000204E41434B206F6E207472616E736D69F7
:1001B00074206F662064617461005B42483137359A
:1001C000305D204552524F523A2072656365697620
:1001D0006564204E41434B206F6E207472616E73D4
:1001E0006D6974206F662061646472657373005B6F
:1001F0004248313735305D204552524F523A2074D3
:100200006F6F206C6F6E6720666F72207472616E04
:10021000736D697420627566666572005B42483171
:100220003735305D20446576696365206973206EDB
:100230006F7420636F6E6669677572656421000074
:10024000000000250028002B0000000000240027EB
:10025000002A00040404040404040402020202024A
:10026000020303030303030102040810204080017A
:100270000204081020010204081020008008112444
:100280001FBECFEFD8E0DEBFCDBF11E0A0E0B1E0F0
:10029000E4ECFBE102C005900D92AA34B107D9F756
:1002A00022E0AAE4B1E001C01D92A83DB207E1F747
:1002B00011E0CFE3D1E004C02197FE010E94DA0DE6
:1002C000CE33D107C9F70E94ED080C94E00D0C94D1
:1002D000000090E0FC01E959FD4F24918D5A9D4F9B
:1002E000FC018491882399F090E0880F991FFC010C
:1002F000E75BFD4FA591B491FC01E15CFD4F859159
:1003000094918FB7F894EC91E22BEC938FBF089502
:10031000FC01538D448D252F30E0842F90E0821B0B
:10032000930B541710F0CF96089501970895FC0190
:10033000918D828D981761F0A28DAE0FBF2FB11DE8
:100340005D968C91928D9F5F9F73928F90E0089540
:100350008FEF9FEF0895FC01918D828D981731F0FA
:10036000828DE80FF11D858D90E008958FEF9FEF4E
:100370000895FC01918D228D892F90E0805C9F4F24
:10038000821B91098F7399270895FC01A48DA80FF2
:10039000B92FB11DA35ABF4F2C91848D90E00196C7
:1003A0008F739927848FA689B7892C93A089B189E7
:1003B0008C91837080648C93938D848D981306C088
:1003C0000288F389E02D80818F7D80830895EF92EC
:1003D000FF920F931F93CF93DF93EC0181E0888FFF
:1003E0009B8D8C8D98131AC0E889F989808185FFCF
:1003F00015C09FB7F894EE89FF896083E889F98971
:1004000080818370806480839FBF81E090E0DF9172
:10041000CF911F910F91FF90EF900895F62E0B8DC5
:1004200010E00F5F1F4F0F731127E02E8C8D8E1180
:100430000CC00FB607FCFACFE889F989808185FFE7
:10044000F5CFCE010E94C501F1CFEB8DEC0FFD2F52
:10045000F11DE35AFF4FF0829FB7F8940B8FEA89A2
:10046000FB8980818062CFCFCF93DF93EC01888DB1
:100470008823B9F0AA89BB89E889F9898C9185FD1F
:1004800003C0808186FD0DC00FB607FCF7CF8C91AD
:1004900085FFF2CF808185FFEDCFCE010E94C5019F
:1004A000E9CFDF91CF91089589E092E00E94B901F0
:1004B00021E0892B09F420E0822F089580E090E06C
:1004C000892B29F00E94540281110C940000089598
:1004D000AF92BF92CF92DF92EF92FF920F931F9352
:1004E000CF93DF936C017B018B01040F151FEB0190
:1004F0005E01AE18BF08C017D10759F06991D60147
:10050000ED91FC910190F081E02DC6010995892BB8
:1005100079F7C501DF91CF911F910F91FF90EF9077
:10052000DF90CF90BF90AF90089590E0FC01E85924
:10053000FF4F2491FC01E959FD4F3491FC01ED5A24
:10054000FD4FE491EE23C9F0222339F0233001F16D
:10055000A8F4213019F1223029F1F0E0EE0FFF1F4D
:10056000E15CFD4FA591B4918FB7F894EC916111C6
:1005700026C030953E233C938FBF08952730A9F0C5
:100580002830C9F0243049F7809180008F7D03C066
:10059000809180008F7780938000DFCF84B58F7744
:1005A00084BDDBCF84B58F7DFBCF8091B0008F778A
:1005B0008093B000D2CF8091B0008F7DF9CF3E2BD9
:1005C000DACF3FB7F8948091AF019091B001A0913C
:1005D000B101B091B20126B5A89B05C02F3F19F01B
:1005E0000196A11DB11D3FBFBA2FA92F982F8827B3
:1005F000BC01CD01620F711D811D911D42E0660F8E
:10060000771F881F991F4A95D1F708958F929F925F
:10061000AF92BF92CF92DF92EF92FF924B015C01BB
:100620000E94E1026B017C010E94E1026C197D09CC
:100630008E099F09683E734081059105A8F321E06A
:10064000821A9108A108B10888EEC80E83E0D81E6E
:10065000E11CF11C81149104A104B10429F7FF905D
:10066000EF90DF90CF90BF90AF909F908F900895C4
:10067000DC01ED91FC910190F081E02D09941F9334
:10068000CF93DF93C1E0C0936A01882399F1D091A1
:10069000B8001091BA008091BC008A7B8093BC00A6
:1006A00060E082E10E94950260E083E10E94950291
:1006B0001092DD01C093DC011092D70161E082E16C
:1006C0000E94950261E083E10E9495028091B90049
:1006D0008E7F8093B9008091B9008D7F8093B9009F
:1006E00088E48093B80085E48093BC001093BA003E
:1006F000D093B800DF91CF911F91089520918B0185
:10070000260F3327331F21323105ECF42091DD0110
:10071000FC0190E080E0243069F082E00895A0912F
:100720008B012191AC0145595E4FA40FB52FB11D2E
:100730002C930196861798F380918B01680F609334
:100740008B0180E0089581E008950895E091E4012F
:100750008091E301E81730F4F0E0EB51FE4F808127
:1007600090E008958FEF9FEF08959091E4018091BC
:10077000E3012FEF3FEF981748F4E92FF0E0EB513A
:10078000FE4F208130E09F5F9093E401C9010895FE
:100790008091E3019091E401891B990B0895CF9218
:1007A000DF92EF92FF920F931F93CF93DF937C0121
:1007B000CB018A012091B601222389F0EB016B0164
:1007C000C40ED51ECC15DD0569F06991D701ED91F8
:1007D000FC910190F081E02DC7010995F3CF642FC2
:1007E0000E947E03C801DF91CF911F910F91FF906E
:1007F000EF90DF90CF900895CF93DF931F92CDB706
:10080000DEB769832091B6012223F9F02091B3016C
:10081000203258F021E030E0FC013383228390E065
:1008200080E00F90DF91CF9108958091B401E82F7F
:10083000F0E0E65BFE4F998190838F5F8093B40177
:100840008093B30181E090E0ECCF61E0CE010196AE
:100850000E947E03F7CFCF92DF92EF92FF920F9329
:100860001F93CF93DF93D091B30181E0D13208F091
:100870009CC0C091B5010E94E1026B017C01809196
:10088000DD0181116CC082E08093DD0181E0809305
:10089000DC018FEF8093DB011092DA01D093D90154
:1008A000AAE4B1E0E7EBF1E080E0D8138DC010924C
:1008B000D8018091D801CC0FC82BC093D80180916A
:1008C000D701813009F084C01092D7010E94E10263
:1008D0006B017C018091D8018093BB008091DF0186
:1008E0009091E001A091E101B091E201892B8A2B66
:1008F0008B2BA1F00E94E1020091DF011091E00139
:100900002091E1013091E2016C197D098E099F0966
:10091000061717072807390708F442C08091BC0062
:1009200083FDD8CF85EC8093BC000E94E1026B016F
:100930007C018091DD01823009F44CC08091DB01A3
:100940008F3F09F469C08091DB01803209F466C0F1
:100950008091DB01803309F463C084E026C080917C
:10096000DF019091E001A091E101B091E201892BBA
:100970008A2B8B2B09F483CF0E94E1020091DF01C7
:100980001091E0012091E1013091E2016C197D09A3
:100990008E099F09061717072807390708F06FCF38
:1009A0008091DE010E943F0385E01092B401109215
:1009B000B3011092B601DF91CF911F910F91FF907B
:1009C000EF90DF90CF9008959D9191938F5F6DCFC1
:1009D00085EEA9CF8091DF019091E001A091E10126
:1009E000B091E201892B8A2B8B2B09F4A2CF0E94B4
:1009F000E1020091DF011091E0012091E1013091CD
:100A0000E2016C197D098E099F090617170728074F
:100A1000390708F08ECFC4CF80E0C7CF82E0C5CFC2
:100A200083E0C3CF089590E080E00895CF93DF93F3
:100A3000EC0160E08E810E94950261E08E810E944F
:100A4000950260E08E810E9495028BE891E001970B
:100A5000F1F7DF91CF910895CF92DF92EF92FF925D
:100A60000F931F93CF93DF936C017C0187E0E80E17
:100A7000F11CD0E0C0E0062F10E0B8010C2E02C03F
:100A8000759567950A94E2F76170F70181917F018E
:100A90000E9495022196C430D10579F7C601DF91F5
:100AA000CF911F910F91FF90EF90DF90CF900C941A
:100AB0001605CF92DF92EF92FF920F931F93CF9381
:100AC000DF93EC01F62E642F8C810E9495028D81BC
:100AD0008F3F19F060E00E9495020F2D10E08F8586
:100AE00084FF25C06E0187E0C80ED11CF12CE12CDB
:100AF000B8010E2C02C0759567950A94E2F76170F3
:100B0000F60181916F010E949502FFEFEF1AFF0A33
:100B100088E0E816F10461F7CE01DF91CF911F91D3
:100B20000F91FF90EF90DF90CF900C941605B801D5
:100B300084E0759567958A95E1F7CE010E942C05B2
:100B40006F2DCE01DF91CF911F910F91FF90EF900C
:100B5000DF90CF900C942C0540E0682F82EB92E060
:100B60000C945905CF93DF93823029F49091C10200
:100B700098609093C1028093C5021092C60280E4EF
:100B80008093C70280E18093C80280E58093C90208
:100B90008091B6020E9469018091B7028F3F11F0E7
:100BA0000E9469018091B8020E946901C2EBD2E003
:100BB0009E01225B32408091C10284FD0AC084E024
:100BC00090E02196281739073CF48E810E94690134
:100BD000EFCF88E090E0F5CF8BE39DE00197F1F750
:100BE00060E08091B6020E94950260E08091B802B8
:100BF0000E9495028091B7028F3F19F060E00E9439
:100C000095028091C10284FD39C063E082EB92E0DD
:100C10000E942C05CBE4D6E4CE010197F1F763E006
:100C200082EB92E00E942C052197F1F763E082EBC2
:100C300092E00E942C0583E592E00197F1F762E0D3
:100C400082EB92E00E942C058091C10280620E949A
:100C5000AC0584E08093C2028CE00E94AC0581E088
:100C60000E94AC058BE39FE10197F1F782E080934E
:100C7000C30286E0DF91CF910C94AC0580620E94A4
:100C8000AC058BE496E40197F1F78091C102806294
:100C90000E94AC0583E592E00197F1F78091C102D3
:100CA00080620E94AC05D0CF41E00E94590581E0EE
:100CB00090E00895FB0101900020E9F73197AF0122
:100CC000461B570BDC01ED91FC910280F381E02D76
:100CD00009940F931F93CF93DF938C01D0E0C0E072
:100CE000F801EC0FFD1F6491662341F089E092E06A
:100CF0000E94E701892B11F02196F2CF60E371E0A9
:100D000089E092E00E945A068C0F9D1FDF91CF91DF
:100D10001F910F91089585ED8093BC008091DF01B4
:100D20009091E001A091E101B091E2010796A11D2F
:100D3000B11D23E0B695A795979587952A95D1F78C
:100D40002091BC0024FD03C01092DD010895409164
:100D5000DF015091E0016091E1017091E201452BCA
:100D6000462B472B69F30097A105B10541F025E318
:100D70002A95F1F700000197A109B109E1CF80910F
:100D8000DE010C943F031F920F920FB60F921124B5
:100D90002F933F934F935F936F937F938F939F9383
:100DA000AF93BF93EF93FF9389E092E00E94C50158
:100DB000FF91EF91BF91AF919F918F917F916F9133
:100DC0005F914F913F912F910F900FBE0F901F9009
:100DD00018951F920F920FB60F9211242F938F9395
:100DE0009F93EF93FF93E0911902F0911A02808193
:100DF000E0911F02F091200282FD1BC09081809142
:100E000022028F5F8F7320912302821741F0E091BD
:100E10002202F0E0E75FFD4F958F80932202FF9161
:100E2000EF919F918F912F910F900FBE0F901F9078
:100E300018958081F4CF1F920F920FB60F92112454
:100E40002F933F938F939F93AF93BF93809105020E
:100E500090910602A0910702B09108023091AE0174
:100E600023E0230F2D3758F50196A11DB11D2093C6
:100E7000AE018093050290930602A0930702B093FF
:100E800008028091AF019091B001A091B101B091A1
:100E9000B2010196A11DB11D8093AF019093B001E5
:100EA000A093B101B093B201BF91AF919F918F9187
:100EB0003F912F910F900FBE0F901F90189526E82D
:100EC000230F0296A11DB11DD2CF1F920F920FB614
:100ED0000F9211242F933F934F935F936F937F93C0
:100EE0008F939F93AF93BF93EF93FF938091B9003C
:100EF000887F803609F44AC0F0F5883209F4A5C02D
:100F000018F5803109F499C0B8F4882309F4F5C0C4
:100F1000883009F492C0FF91EF91BF91AF919F91FA
:100F20008F917F916F915F914F913F912F910F9092
:100F30000FBE0F901F901895883109F486C080323B
:100F400051F78093DB0114C0803409F49BC040F456
:100F50008033B9F38833F9F68093DB0185ECAEC0BA
:100F6000803509F483C0883509F494C0883499F633
:100F70000E948B06D0CF883909F48AC038F58837AB
:100F800029F050F4883611F0803729F683E08093F9
:100F9000DD011092AD0155C0883809F479C080395F
:100FA00019F0803809F0B7CF8091AD01803208F098
:100FB0006FC0E091AD0181E08E0F8093AD01809113
:100FC000BB00F0E0E357FE4F80833BC0803B39F02D
:100FD000D0F4803A09F477C0883A09F09CCF84E0D5
:100FE0008093DD0110928C0110928B01F0E0E0E023
:100FF000099580918B0181110FC081E080938B0155
:1010000010926B0109C0803C09F4A8CF883C09F418
:10101000A5CF883B09F07FCFE0918C0181E08E0F56
:1010200080938C01F0E0E559FE4F80818093BB00F6
:1010300090918C0180918B0129C08091D80180937F
:10104000BB0085EC8093BC0066CF9091DA01809163
:10105000D901981758F5E091DA0181E08E0F80935D
:10106000DA01F0E0E954FE4F8081E9CFE091DA0146
:1010700081E08E0F8093DA018091BB00F0E0E954AB
:10108000FE4F80839091DA018091D9019817C8F2C0
:1010900085E8D8CFE091DA0181E08E0F8093DA0104
:1010A0008091BB00F0E0E954FE4F80838091DC0129
:1010B00081115ECF81E08093D70184EA8093BC00E8
:1010C0001092DD0128CF85EC8093BC001092DD01E9
:1010D0008091AD01803230F4E091AD01F0E0E35752
:1010E000FE4F10826091AD0170E08DE891E0F0E07C
:1010F000E0E009951092AD010ECF1092DB0138CFE0
:10110000E9E0F2E01382128248EE53E060E070E022
:10111000448355836683778384E091E09183808361
:1011200085EC90E09587848784EC90E097878687AC
:1011300080EC90E0918B808B81EC90E0938B828BA4
:1011400082EC90E0958B848B86EC90E0978B868B7D
:10115000118E128E138E148EA6EAB2E013961C9294
:101160001E92129714964D935D936D937C931797EF
:1011700086E191E011969C938E93EAECF2E085E48F
:1011800081834AE959E969E97FE3428353836483B0
:1011900075831782168283E28083B187A087E2EB92
:1011A000F2E01382128288E291E09183808382E0F0
:1011B00084838FEF858383E0868384E0878385E063
:1011C000808786E0818787E082871386148615866C
:1011D0001686178681E00C94B205CF93DF93CDB7C6
:1011E000DEB7A2970FB6F894DEBF0FBECDBF7894DE
:1011F00084B5826084BD84B5816084BD85B582601C
:1012000085BD85B5816085BD80916E0081608093CC
:101210006E00109281008091810082608093810035
:101220008091810081608093810080918000816045
:10123000809380008091B10084608093B1008091A0
:10124000B00081608093B00080917A0084608093C8
:101250007A0080917A00826080937A0080917A008F
:10126000816080937A0080917A00806880937A0010
:101270001092C10082E00E94B20563E371E082EB4C
:1012800092E00E945A0623E22093CA028091D20281
:101290009091D30201E00093B6012093B501109222
:1012A000B4011092B301DC01ED91FC910190F08149
:1012B000E02D60E109958091D2029091D3020E94C5
:1012C0002B04182F6AE070E080E090E00E94060393
:1012D000123009F49AC048F4112391F08FEE91E096
:1012E000113059F08CE491E008C088E891E01330A7
:1012F00021F08CE691E01430A9F70E9469068BC0BA
:1013000080E190E09093D1028093D0022FB7F894BF
:101310008091050290910602A0910702B091080207
:101320002FBF8093D4029093D502A093D602B0939E
:10133000D7028091D2029091D3022091CA020093E9
:10134000B6012093B5011092B4011092B30162E48A
:1013500070E00E9438038091D2029091D3020E94E3
:101360002B04182F8091D2029091D3022091CA02AF
:101370000093B6012093B5011092B4011092B3010D
:1013800065E670E00E9438038091D2029091D3020A
:101390000E942B04182B8091D2029091D3022091AD
:1013A000CA020093B6012093B5011092B4011092C5
:1013B000B3016091D0027091D1020E9438038091F4
:1013C000D2029091D3020E942B04182B6AE070E0A5
:1013D00080E090E00E940603123009F4A1C050F4AE
:1013E0001123B1F08FE191E0113009F486CF8CE741
:1013F00090E083CF88EB90E0133009F47ECF8CE946
:1014000090E0143009F479CFF2CF8AEB91E075CFF8
:1014100085E48093CB028DE00E94690160E08DE05D
:101420000E9495023AE0432E512C612C712C40E031
:10143000A42E40E0B42E11E022242A9425EE322E70
:1014400005EC8091D0029091D102892B09F06BC0FC
:101450008CE192E00E946906C12CD12CE12C90EC29
:10146000F92EC701B6010E94630C6B0181E00E9456
:10147000AC058BE39FE10197F1F782E00E94AC0598
:101480008BE39FE10197F1F76CE371E082EB92E06F
:101490000E945A060D2C000CEE08FF08F7FE86C1CC
:1014A00041E06DE282EB92E00E945905222733274A
:1014B000A9012C193D094E095F0919A2FE01B19637
:1014C0007F01CA01B901A30192010E94B80D605DBC
:1014D000D7016E937D01211531054105510589F72D
:1014E000E114F10429F0B70182EB92E00E945A0660
:1014F00064E471E082EB92E00E945A0668EE73E0C9
:1015000080E090E00E940603A114B10409F499CF91
:101510000E945402882309F493CF0E9400008ECFCA
:101520008AEE90E0EACEB091CA02BAA30E94E1022C
:101530006B017C018091DD01811163C01093DD019D
:101540001093DC012092DB011092DA011093D90193
:101550001093D8018091D801FAA0FF0CF82AF092DC
:10156000D8018091D701813009F0F2C01092D701E3
:101570000E94E1026B017C018091D8018093BB0045
:101580008091DF019091E001A091E101B091E20131
:10159000892B8A2B8B2BA1F00E94E1022091DF0185
:1015A0003091E0014091E1015091E2016C197D0917
:1015B0008E099F09261737074807590708F442C0C4
:1015C0008091BC0083FDD8CF0093BC000E94E10253
:1015D0006B017C018091DD01813009F4BCC08091F8
:1015E000DA01823008F0D9C08091DA01A7EBB1E0CE
:1015F000E5EEF1E090E0981751F12D9121939F5F76
:10160000FACF8091DF019091E001A091E101B091CA
:10161000E201892B8A2B8B2B09F48CCF0E94E102EB
:101620002091DF013091E0014091E1015091E20110
:101630006C197D098E099F09261737074807590736
:1016400008F078CF8091DE010E943F0380E0109285
:10165000E4018093E301823009F0A1C08091D202BD
:101660009091D302DC01ED91FC910284F385E02D91
:101670000995982E812C8091D2029091D302DC01A1
:10168000ED91FC910284F385E02D09958829992933
:10169000BC0190E080E00E94990C6B017C012FB7A7
:1016A000F8948091050290910602A0910702B091F2
:1016B00008022FBF8093D4029093D502A093D60244
:1016C000B093D70220E030E040E85FEBC701B601FD
:1016D0000E94EC0B882309F4C4CE6091CB026534E0
:1016E000A9F070E090E080E00E94990C9B01AC01B1
:1016F00060E070E08AE892E40E94F10B9B01AC018B
:10170000C701B6010E944B0D6B017C018091D00294
:101710009091D1028132910511F0419751F420E06E
:1017200030E040E05FE3C701B6010E944B0D6B0162
:101730007C012091CC023091CD024091CE0250919B
:10174000CF02C701B6010E94F10B6B017C0189CE6B
:101750003092BC003BCF8091DF019091E001A091DD
:10176000E101B091E201892B8A2B8B2B09F432CF56
:101770000E94E1022091DF013091E0014091E101FE
:101780005091E2016C197D098E099F0926173707D0
:101790004807590708F01ECF55CF82E027CFC12C4C
:1017A000D12C80E8E82E8FEBF82E79CFA701960197
:1017B00019A2FE01B1967F01CA01B901A3019201EC
:1017C0000E94B80D605DD7016E937D012115310532
:1017D0004105510589F784CE0E94D60C08F481E0BA
:1017E00008950E94050C0C94110D0E940A0D58F0EA
:1017F0000E94030D40F029F45F3F29F00C94FA0C8D
:1018000051110C94450D0C94000D0E94220D68F3AB
:101810009923B1F3552391F3951B550BBB27AA27A9
:1018200062177307840738F09F5F5F4F220F331FE3
:10183000441FAA1FA9F335D00E2E3AF0E0E832D0AB
:1018400091505040E695001CCAF72BD0FE2F29D0AE
:10185000660F771F881FBB1F261737074807AB0780
:10186000B0E809F0BB0B802DBF01FF2793585F4FF5
:101870003AF09E3F510578F00C94FA0C0C94450D0B
:101880005F3FE4F3983ED4F3869577956795B795D7
:10189000F7959F5FC9F7880F911D9695879597F9E2
:1018A0000895E1E0660F771F881FBB1F621773075B
:1018B0008407BA0720F0621B730B840BBA0BEE1F70
:1018C00088F7E09508950E946A0C6894B1110C9411
:1018D000450D08950E942A0D88F09F5798F0B92F62
:1018E0009927B751B0F0E1F0660F771F881F991F55
:1018F0001AF0BA95C9F714C0B13091F00E94440DA6
:10190000B1E008950C94440D672F782F8827B85FB5
:1019100039F0B93FCCF3869577956795B395D9F7AC
:101920003EF490958095709561957F4F8F4F9F4FB6
:101930000895E89409C097FB3EF4909580957095C2
:1019400061957F4F8F4F9F4F9923A9F0F92F96E90B
:10195000BB279395F695879577956795B795F11180
:10196000F8CFFAF4BB0F11F460FF1BC06F5F7F4F1D
:101970008F4F9F4F16C0882311F096E911C077232F
:1019800021F09EE8872F762F05C0662371F096E838
:10199000862F70E060E02AF09A95660F771F881F07
:1019A000DAF7880F9695879597F90895990F0008AB
:1019B000550FAA0BE0E8FEEF16161706E807F90721
:1019C000C0F012161306E407F50798F0621B730BBC
:1019D000840B950B39F40A2661F0232B242B252B3D
:1019E00021F408950A2609F4A140A6958FEF811DE0
:1019F000811D089597F99F6780E870E060E0089581
:101A00009FEF80EC089500240A9416161706180616
:101A10000906089500240A941216130614060506F2
:101A20000895092E0394000C11F4882352F0BB0F83
:101A300040F4BF2B11F460FF04C06F5F7F4F8F4FE6
:101A40009F4F089557FD9058440F551F59F05F3F21
:101A500071F04795880F97FB991F61F09F3F79F0D0
:101A600087950895121613061406551FF2CF469552
:101A7000F1DF08C0161617061806991FF1CF8695D4
:101A80007105610508940895E894BB2766277727B8
:101A9000CB0197F908950E945E0D0C94110D0E94E0
:101AA000030D38F00E940A0D20F0952311F00C94DC
:101AB000FA0C0C94000D11240C94450D0E94220D7B
:101AC00070F3959FC1F3950F50E0551F629FF00191
:101AD000729FBB27F00DB11D639FAA27F00DB11DAA
:101AE000AA1F649F6627B00DA11D661F829F222733
:101AF000B00DA11D621F739FB00DA11D621F839FBA
:101B0000A00D611D221F749F3327A00D611D231F8F
:101B1000849F600D211D822F762F6A2F11249F57DD
:101B200050409AF0F1F088234AF0EE0FFF1FBB1FE0
:101B3000661F771F881F91505040A9F79E3F51059F
:101B400080F00C94FA0C0C94450D5F3FE4F3983E42
:101B5000D4F3869577956795B795F795E7959F5F49
:101B6000C1F7FE2B880F911D9695879597F90895DB
:101B7000A1E21A2EAA1BBB1BFD010DC0AA1FBB1F91
:101B8000EE1FFF1FA217B307E407F50720F0A21B03
:101B9000B30BE40BF50B661F771F881F991F1A9470
:101BA00069F760957095809590959B01AC01BD019A
:101BB000CF010895EE0FFF1F0590F491E02D0994D9
:041BC000F894FFCFC7
:101BC40000000000E701680288013402B9019701AE
:101BD400AB0100000000FC03CF031305A503C803F9
:101BE400B503A6030000000054066802130512059D
:101BF4000D0A00576974616D2E2E2E004C696768BA
:0A1C0400743A2000206C757800008F
:00000001FF
