:020000040000FA
:100000000C945D000C9495030C946E030C94850085
:100010000C9485000C9485000C9485000C9485004C
:100020000C9485000C9485000C9485000C9485003C
:100030000C9485000C9485000C9485000C9485002C
:100040000C9424030C9485000C94F2020C94CC02C2
:100050000C9485000C9485000C9485000C9485000C
:100060000C9485000C9485000000000024002700FB
:100070002A0000000000250028002B0004040404CE
:100080000404040402020202020203030303030342
:10009000010204081020408001020408102001021F
:1000A00004081020000000080002010000030407FB
:1000B00000000000000000003C0511241FBECFEF2F
:1000C000D8E0DEBFCDBF11E0A0E0B1E0E4E6FBE0A8
:1000D00002C005900D92A433B107D9F721E0A4E343
:1000E000B1E001C01D92A23EB207E1F710E0CDE5FC
:1000F000D0E004C02197FE010E94AA05CC35D107AB
:10010000C9F70E94BC030C94B0050C940000EDEA02
:10011000F0E02491E9E9F0E09491E5E8F0E0E49181
:10012000EE23C9F0222339F0233001F1A8F4213065
:1001300019F1223029F1F0E0EE0FFF1FEE58FF4FCA
:10014000A591B4912FB7F894EC91811126C09095A8
:100150009E239C932FBF08952730A9F02830C9F023
:10016000243049F7209180002F7D03C0209180002A
:100170002F7720938000DFCF24B52F7724BDDBCFEE
:1001800024B52F7DFBCF2091B0002F772093B000B6
:10019000D2CF2091B0002F7DF9CF9E2BDACFE9E9A5
:1001A000F0E02491E5E8F0E08491882399F090E074
:1001B000880F991FFC01E859FF4FA591B491FC01EC
:1001C000EE58FF4F859194918FB7F894EC91E22B04
:1001D000EC938FBF089580913F019091400101966B
:1001E0009093400180933F010895AF92BF92CF92C8
:1001F000DF92EF92FF920F931F93CF93DF936C01E7
:100200007B018B01040F151FEB015E01AE18BF08C7
:10021000C017D10759F06991D601ED91FC91019079
:10022000F081E02DC6010995892B79F7C501DF9191
:10023000CF911F910F91FF90EF90DF90CF90BF90E3
:10024000AF900895FC01538D448D252F30E0842F0D
:1002500090E0821B930B541710F0CF9608950197EE
:100260000895FC01918D828D981761F0A28DAE0FDB
:10027000BF2FB11D5D968C91928D9F5F9F73928F62
:1002800090E008958FEF9FEF0895FC01918D828D8E
:10029000981731F0828DE80FF11D858D90E008955B
:1002A0008FEF9FEF0895FC01918D228D892F90E0B3
:1002B000805C9F4F821B91098F739927089585E475
:1002C00091E00E94530121E0892B09F420E0822F64
:1002D000089580E090E0892B29F00E945F01811150
:1002E0000C9400000895FC01A48DA80FB92FB11D36
:1002F000A35ABF4F2C91848D90E001968F7399275C
:10030000848FA689B7892C93A089B1898C91837039
:1003100080648C93938D848D981306C00288F38932
:10032000E02D80818F7D80830895EF92FF920F935F
:100330001F93CF93DF93EC0181E0888F9B8D8C8D91
:1003400098131AC0E889F989808185FF15C09FB785
:10035000F894EE89FF896083E889F9898081837048
:10036000806480839FBF81E090E0DF91CF911F91F7
:100370000F91FF90EF900895F62E0B8D10E00F5F18
:100380001F4F0F731127E02E8C8D8E110CC00FB6EE
:1003900007FCFACFE889F989808185FFF5CFCE0186
:1003A0000E947301F1CFEB8DEC0FFD2FF11DE35A8D
:1003B000FF4FF0829FB7F8940B8FEA89FB89808109
:1003C0008062CFCFCF93DF93EC01888D8823B9F083
:1003D000AA89BB89E889F9898C9185FD03C0808150
:1003E00086FD0DC00FB607FCF7CF8C9185FFF2CFCD
:1003F000808185FFEDCFCE010E947301E9CFDF91AF
:10040000CF9108953FB7F8948091350190913601CE
:10041000A0913701B091380126B5A89B05C02F3FA8
:1004200019F00196A11DB11D3FBFBA2FA92F982F1A
:100430008827BC01CD01620F711D811D911D42E015
:10044000660F771F881F991F4A95D1F708958F92DD
:100450009F92AF92BF92CF92DF92EF92FF924B01A9
:100460005C010E9402026B017C010E9402026C1975
:100470007D098E099F09683E734081059105A8F3A7
:1004800021E0821A9108A108B10888EEC80E83E025
:10049000D81EE11CF11C81149104A104B10429F7B8
:1004A000FF90EF90DF90CF90BF90AF909F908F9094
:1004B00008950895FC0101900020E9F73197AF01FC
:1004C000481B590BBC0185E491E00C94F5008F9218
:1004D0009F92AF92BF920F931F93CF93DF93CDB7AD
:1004E000DEB7A1970FB6F894DEBF0FBECDBF19A23D
:1004F000423008F44AE08E010F5D1F4F842E912C8C
:10050000B12CA12CA50194010E948805E62FB90108
:10051000CA01EA30F4F4E05DD801EE938D01232B9B
:10052000242B252B79F790E080E0109719F0CD016E
:100530000E945A02A1960FB6F894DEBF0FBECDBF3F
:10054000DF91CF911F910F91BF90AF909F908F90AF
:100550000895E95CE1CFCF92DF92EF92FF92CF93C3
:10056000DF936B017C016DE285E491E00E949501CF
:10057000EC0166277727CB016C197D098E099F094D
:100580004AE00E9467028C0F9D1FDF91CF91FF9080
:10059000EF90DF90CF9008951F920F920FB60F92B9
:1005A00011242F933F934F935F936F937F938F9378
:1005B0009F93AF93BF93EF93FF9385E491E00E94E5
:1005C0007301FF91EF91BF91AF919F918F917F91B7
:1005D0006F915F914F913F912F910F900FBE0F90B0
:1005E0001F9018951F920F920FB60F9211242F9300
:1005F0008F939F93EF93FF93E0915501F0915601F4
:100600008081E0915B01F0915C0182FD1BC09081D3
:1006100080915E018F5F8F7320915F01821741F09F
:10062000E0915E01F0E0EB5BFE4F958F80935E0101
:10063000FF91EF919F918F912F910F900FBE0F908F
:100640001F9018958081F4CF1F920F920FB60F92D2
:1006500011242F933F938F939F93AF93BF938091D8
:10066000390190913A01A0913B01B0913C01309148
:10067000340123E0230F2D3758F50196A11DB11D3C
:10068000209334018093390190933A01A0933B0168
:10069000B0933C018091350190913601A0913701D2
:1006A000B09138010196A11DB11D80933501909341
:1006B0003601A0933701B0933801BF91AF919F915C
:1006C0008F913F912F910F900FBE0F901F90189513
:1006D00026E8230F0296A11DB11DD2CF1F920F92C3
:1006E0000FB60F9211242F933F934F935F936F9305
:1006F0007F938F939F93AF93BF93EF93FF93E0917B
:100700000201F09103010995FF91EF91BF91AF9123
:100710009F918F917F916F915F914F913F912F9119
:100720000F900FBE0F901F9018951F920F920FB64B
:100730000F9211242F933F934F935F936F937F9367
:100740008F939F93AF93BF93EF93FF93E09100013B
:10075000F09101010995FF91EF91BF91AF919F91A8
:100760008F917F916F915F914F913F912F910F905A
:100770000FBE0F901F901895789484B5826084BD49
:1007800084B5816084BD85B5826085BD85B5816095
:1007900085BD80916E00816080936E001092810013
:1007A00080918100826080938100809181008160CE
:1007B000809381008091800081608093800080918F
:1007C000B10084608093B1008091B000816080931B
:1007D000B00080917A00846080937A0080917A00E2
:1007E000826080937A0080917A00816080937A00A1
:1007F00080917A00806880937A001092C1000E94F4
:10080000CF000E94CF0080E00E948700E091550158
:10081000F091560182E08083E0915101F091520104
:100820001082E0915301F09154018FEC808310927B
:100830005D01E0915901F0915A0186E08083E091D9
:100840005701F0915801808180618083E0915701C8
:10085000F0915801808188608083E0915701F09188
:100860005801808180688083E0915701F0915801A0
:1008700080818F7D80838BEE90E090930101809347
:10088000000180916900836080936900E89A0DEA15
:1008900010E08EE1982E412C512C32014A9420E038
:1008A000A22E20E0B22EC12CD12C7601D0E0C0E0E7
:1008B0000E94CF00209709F095C080E00E94870039
:1008C00068EB7BE080E090E00E9427022FB7F8946D
:1008D0008091390190913A01A0913B01B0913C0186
:1008E0002FBF8093410190934201A0934301B093A5
:1008F00044011092400110923F012FB7F89480916B
:10090000390190913A01A0913B01B0913C012FBF78
:100910004091410150914201609143017091440125
:10092000841B950BA60BB70B883E9340A105B10520
:1009300020F320913F0130914001929EC001939E8F
:10094000900D112490933E0180933D0186E191E04A
:100950000E945A02C701B601A30192010E946905D3
:10096000CA01B9014AE00E9467028DE191E00E944C
:100970005A0280E291E00E945A0260913D0170911A
:100980003E01072E000C880B990B97FF71C00E9447
:10099000AB028CE291E00E945A0281E391E00E9456
:1009A0005A0260ED77E080E090E00E942702E39633
:1009B0002CEEC20E23E1D21EE11CF11C88E8C81601
:1009C00087E7D806E104F10409F072CFA114B1045D
:1009D00009F469CF0E945F01882309F464CF0E9463
:1009E000000061CFCF3FD10511F481E067CFF8015E
:1009F0008491833019F140F48130B1F08230C9F034
:100A0000C038D10594F759CF873011F1883041F1C2
:100A10008430B1F780918000806280938000D09311
:100A20008B00C0938A004CCF84B5806884BDC7BD5D
:100A300047CF84B5806284BDC8BD42CF809180001D
:100A4000806880938000D0938900C093880038CF5D
:100A50008091B00080688093B000C093B30030CF25
:100A60008091B00080628093B000C093B40028CF22
:100A70004AE00E9467028DCFE5E4F1E01382128222
:100A800088EE93E0A0E0B0E084839583A683B783EB
:100A900088E091E09183808385EC90E0958784875E
:100AA00084EC90E09787868780EC90E0918B808B38
:100AB00081EC90E0938B828B82EC90E0958B848B21
:100AC00086EC90E0978B868B118E128E138E148E8F
:100AD0000895052E97FB1EF400940E94800557FD93
:100AE00007D00E94880507FC03D04EF40C948005C3
:100AF00050954095309521953F4F4F4F5F4F08954A
:100B000090958095709561957F4F8F4F9F4F089579
:100B1000A1E21A2EAA1BBB1BFD010DC0AA1FBB1F01
:100B2000EE1FFF1FA217B307E407F50720F0A21B73
:100B3000B30BE40BF50B661F771F881F991F1A94E0
:100B400069F760957095809590959B01AC01BD010A
:100B5000CF010895EE0FFF1F0590F491E02D099449
:100B6000F894FFCF59025902000000009501F500EA
:100B70002201E20153013101450150574D203D2032
:100B8000002025002C20205370656564203D200046
:080B90002072706D000D0A00D7
:107E0000112484B714BE81FFF0D085E080938100F7
:107E100082E08093C00088E18093C10086E0809377
:107E2000C20080E18093C4008EE0C9D0259A86E02C
:107E300020E33CEF91E0309385002093840096BBD3
:107E4000B09BFECF1D9AA8958150A9F7CC24DD24C4
:107E500088248394B5E0AB2EA1E19A2EF3E0BF2EE7
:107E6000A2D0813461F49FD0082FAFD0023811F036
:107E7000013811F484E001C083E08DD089C08234E0
:107E800011F484E103C0853419F485E0A6D080C0E4
:107E9000853579F488D0E82EFF2485D0082F10E0AE
:107EA000102F00270E291F29000F111F8ED06801E7
:107EB0006FC0863521F484E090D080E0DECF843638
:107EC00009F040C070D06FD0082F6DD080E0C81688
:107ED00080E7D80618F4F601B7BEE895C0E0D1E017
:107EE00062D089930C17E1F7F0E0CF16F0E7DF06D8
:107EF00018F0F601B7BEE89568D007B600FCFDCFD4
:107F0000A601A0E0B1E02C9130E011968C91119780
:107F100090E0982F8827822B932B1296FA010C0160
:107F200087BEE89511244E5F5F4FF1E0A038BF0790
:107F300051F7F601A7BEE89507B600FCFDCF97BE46
:107F4000E89526C08437B1F42ED02DD0F82E2BD052
:107F50003CD0F601EF2C8F010F5F1F4F84911BD097
:107F6000EA94F801C1F70894C11CD11CFA94CF0C13
:107F7000D11C0EC0853739F428D08EE10CD085E9AC
:107F80000AD08FE07ACF813511F488E018D01DD067
:107F900080E101D065CF982F8091C00085FFFCCF94
:107FA0009093C60008958091C00087FFFCCF809118
:107FB000C00084FD01C0A8958091C6000895E0E648
:107FC000F0E098E1908380830895EDDF803219F02E
:107FD00088E0F5DFFFCF84E1DECF1F93182FE3DFCA
:107FE0001150E9F7F2DF1F91089580E0E8DFEE27F6
:047FF000FF270994CA
:027FFE00040479
:00000001FF
