:020000040000FA
:100000000C945D000C9485000C9485000C94850084
:100010000C9485000C9485000C9485000C9485004C
:100020000C9485000C9485000C9485000C94460378
:100030000C9485000C9485000C9485000C9485002C
:100040000C94FC020C9485000C94CA020C94A4023B
:100050000C9485000C9485000C9485000C9485000C
:100060000C9485000C94850000000008000201003B
:100070000003040700000000000000000000000072
:10008000250028002B0000000000240027002A0083
:10009000040404040404040402020202020203032E
:1000A0000303030301020408102040800102040836
:1000B0001020010204081020020411241FBECFEFFB
:1000C000D8E0DEBFCDBF11E0A0E0B1E0E2E5FDE0A9
:1000D00002C005900D92A631B107D9F721E0A6E143
:1000E000B1E001C01D92A73EB207E1F710E0CDE5F7
:1000F000D0E004C02197FE010E94A106CC35D107B3
:10010000C9F70E945F040C94A7060C94000090E0CD
:10011000FC01EC55FF4F249180579F4FFC018491C7
:10012000882399F090E0880F991FFC01EA57FF4F50
:10013000A591B491FC01E458FF4F859194918FB73C
:10014000F894EC91E22BEC938FBF0895AF92BF929D
:10015000CF92DF92EF92FF920F931F93CF93DF9393
:100160006C017B018B01040F151FEB015E01AE18C2
:10017000BF08C017D10759F06991D601ED91FC91E4
:100180000190F081E02DC6010995892B79F7C50111
:10019000DF91CF911F910F91FF90EF90DF90CF9063
:1001A000BF90AF900895FC01538D448D252F30E012
:1001B000842F90E0821B930B541710F0CF96089574
:1001C00001970895FC01918D828D981761F0A28DA1
:1001D000AE0FBF2FB11D5D968C91928D9F5F9F7367
:1001E000928F90E008958FEF9FEF0895FC01918D1D
:1001F000828D981731F0828DE80FF11D858D90E08A
:1002000008958FEF9FEF0895FC01918D228D892F26
:1002100090E0805C9F4F821B91098F73992708950E
:1002200082E291E00E94040121E0892B09F420E0A0
:10023000822F089580E090E0892B29F00E94100120
:1002400081110C9400000895FC01A48DA80FB92F12
:10025000B11DA35ABF4F2C91848D90E001968F73EE
:100260009927848FA689B7892C93A089B1898C910D
:10027000837080648C93938D848D981306C002885C
:10028000F389E02D80818F7D80830895EF92FF9226
:100290000F931F93CF93DF93EC0181E0888F9B8DA9
:1002A0008C8D98131AC0E889F989808185FF15C063
:1002B0009FB7F894EE89FF896083E889F989808186
:1002C0008370806480839FBF81E090E0DF91CF9155
:1002D0001F910F91FF90EF900895F62E0B8D10E077
:1002E0000F5F1F4F0F731127E02E8C8D8E110CC0E6
:1002F0000FB607FCFACFE889F989808185FFF5CF31
:10030000CE010E942401F1CFEB8DEC0FFD2FF11DEA
:10031000E35AFF4FF0829FB7F8940B8FEA89FB896D
:1003200080818062CFCFCF93DF93EC01888D8823CB
:10033000B9F0AA89BB89E889F9898C9185FD03C048
:10034000808186FD0DC00FB607FCF7CF8C9185FF2D
:10035000F2CF808185FFEDCFCE010E942401E9CF4D
:10036000DF91CF91089590E0FC01E859FF4F24916F
:10037000FC01EC55FF4F3491FC01E057FF4FE49135
:10038000EE23C9F0222339F0233001F1A8F4213003
:1003900019F1223029F1F0E0EE0FFF1FE458FF4F72
:1003A000A591B4918FB7F894EC91611126C0309566
:1003B0003E233C938FBF08952730A9F02830C9F021
:1003C000243049F7809180008F7D03C080918000A8
:1003D0008F7780938000DFCF84B58F7784BDDBCFAC
:1003E00084B58F7DFBCF8091B0008F778093B00074
:1003F000D2CF8091B0008F7DF9CF3E2BDACF3FB7BF
:10040000F89480911C0190911D01A0911E01B09162
:100410001F0126B5A89B05C02F3F19F00196A11D0D
:10042000B11D3FBFBA2FA92F982F8827BC01CD013E
:10043000620F711D811D911D42E0660F771F881F9D
:10044000991F4A95D1F708958F929F92AF92BF92CC
:10045000CF92DF92EF92FF924B015C010E94FF016D
:100460006B017C010E94FF016C197D098E099F09B7
:10047000683E734081059105A8F321E0821A910836
:10048000A108B10888EEC80E83E0D81EE11CF11C5B
:1004900081149104A104B10429F7FF90EF90DF903B
:1004A000CF90BF90AF909F908F9008958F929F9222
:1004B000AF92BF920F931F93CF93DF93CDB7DEB769
:1004C000A1970FB6F894DEBF0FBECDBF19A2423080
:1004D00008F44AE08E010F5D1F4F842E912CB12C41
:1004E000A12CA50194010E946406E62FB901CA015E
:1004F000EA3044F5E05DD801EE938D01232B242BE7
:10050000252B79F790E080E0109769F0FD010190CC
:100510000020E9F73197AF014A1B5B0BBD0182E276
:1005200091E00E94A600A1960FB6F894DEBF0FBE20
:10053000CDBFDF91CF911F910F91BF90AF909F9052
:100540008F900895E95CD7CF1F920F920FB60F924C
:1005500011242F933F934F935F936F937F938F93C8
:100560009F93AF93BF93EF93FF9382E291E00E943A
:100570002401FF91EF91BF91AF919F918F917F9156
:100580006F915F914F913F912F910F900FBE0F9000
:100590001F9018951F920F920FB60F9211242F9350
:1005A0008F939F93EF93FF93E0913201F09133018A
:1005B0008081E0913801F091390182FD1BC090816A
:1005C00080913B018F5F8F7320913C01821741F036
:1005D000E0913B01F0E0EE5DFE4F958F80933B0193
:1005E000FF91EF919F918F912F910F900FBE0F90E0
:1005F0001F9018958081F4CF1F920F920FB60F9223
:1006000011242F933F938F939F93AF93BF93809128
:10061000180190911901A0911A01B0911B0130911C
:10062000170123E0230F2D3758F50196A11DB11DA9
:10063000209317018093180190931901A0931A0138
:10064000B0931B0180911C0190911D01A0911E018E
:10065000B0911F010196A11DB11D80931C019093C3
:100660001D01A0931E01B0931F01BF91AF919F91F7
:100670008F913F912F910F900FBE0F901F90189563
:1006800026E8230F0296A11DB11DD2CF1F920F9213
:100690000FB60F9211242F933F934F935F936F9355
:1006A0007F938F939F93AF93BF93CF93DF93EF93FA
:1006B000FF9380911601C091E301D0E087FF24C031
:1006C0001092850010928400809116018F5F8093B4
:1006D000160180911601082E000C990B8C179D07AE
:1006E00024F4809116018C30C4F1809184009091A3
:1006F0008500049680349C4908F47AC08091840077
:1007000090918500049676C080911601082E000C09
:10071000990B8C179D07C4F6E09116018E2FEE0FF2
:10072000990BFC01EE0FFF1FE80FF91FE154FE4F7C
:10073000808186FFC9CFE09116018E2FEE0F990BB5
:10074000FC01EE0FFF1FE80FF91FE154FE4F8081FF
:1007500060E08F730E94B301B7CF20918400309185
:100760008500E09116018E2FEE0F990BFC01EE0F24
:10077000FF1FE80FF91FE154FE4F81819281820F24
:10078000931F9093890080938800E09116018E2F2B
:10079000EE0F990BFC01EE0FFF1FE80FF91FE1545C
:1007A000FE4F808186FF11C0E09116018E2FEE0F63
:1007B000990BFC01EE0FFF1FE80FF91FE154FE4FEC
:1007C000808161E08F730E94B301FF91EF91DF910F
:1007D000CF91BF91AF919F918F917F916F915F91D9
:1007E0004F913F912F910F900FBE0F901F90189532
:1007F00080E49CE990938900809388008FEF809338
:100800001601E3CF109225011092240188EE93E0A7
:10081000A0E0B0E08093260190932701A0932801E7
:10082000B093290184E091E0909323018093220109
:1008300085EC90E090932F0180932E0184EC90E062
:10084000909331018093300180EC90E090933301DC
:100850008093320181EC90E09093350180933401D4
:1008600082EC90E0909337018093360186EC90E023
:10087000909339018093380110923B0110923C0112
:1008800010923D0110923E018091E3018C3098F46A
:1008900091E0980F9093E3018093E40190E0FC01D4
:1008A000EE0FFF1FE80FF91FE154FE4F88EB9BE0AE
:1008B0009283818308958FEF8093E4010895CF930D
:1008C000DF9300D01F92CDB7DEB7789484B58260F5
:1008D00084BD84B5816084BD85B5826085BD85B5E4
:1008E000816085BD80916E00816080936E00109262
:1008F00081008091810082608093810080918100DD
:10090000816080938100809180008160809380006D
:100910008091B10084608093B1008091B0008160CB
:100920008093B00080917A00846080937A008091F7
:100930007A00826080937A0080917A00816080934F
:100940007A0080917A00806880937A001092C100CA
:100950008091E4018C3008F050C089E00E9487004B
:100960008091E401282F30E0F901EE0FFF1FE20F24
:10097000F31FE154FE4F9081907C99609083109218
:10098000E5011092E6012CE0622F0E949506829FFD
:10099000B001112430E020E0AB01420F531FFA01F7
:1009A000EE0FFF1FE40FF51FE154FE4F908196FDFF
:1009B00016C02F5F3F4F2C30310571F781110FC0EA
:1009C0001092800082E08093810010928500109246
:1009D0008400B19A80916F00826080936F00E091F3
:1009E000E4018E2F90E0FC01EE0FFF1FE80FF91FCE
:1009F000E154FE4F8081806480838AE00E948700FA
:100A00008CE00E9487008BE00E94870060E08AE013
:100A10000E94B30160E08CE00E94B30160E08BE0D3
:100A20000E94B301E0913201F091330182E08083B2
:100A3000E0912E01F0912F011082E0913001F091B0
:100A400031018FEC808310923A01E0913601F091F0
:100A5000370186E08083E0913401F0913501808197
:100A600080618083E0913401F0913501808188605C
:100A70008083E0913401F09135018081806880832A
:100A8000E0913401F091350180818F7D808368E5AC
:100A9000262E62E0362E78E8E72EF12CE4EB8E2E3F
:100AA000912CA12CB12CF0E0CF2EF0E0DF2EA09104
:100AB0002001B0912101A43BB1050CF0ADC0209103
:100AC000E40129832C3008F057C08091E6018101B0
:100AD000081B110987FD1395000F111F000F111F2F
:100AE0008091E5019701281B310987FD3395220F7D
:100AF000331F220F331F3B832A832901330F6608DC
:100B00007708B7FF02C0B0E0A0E09801012E000C0A
:100B1000440B550B24193509460957090E945C06F8
:100B2000A50194010E943206420E531E641E751EDA
:100B30002A813B81421653063CF01B830A834016F0
:100B4000510614F45B824A828A819B810297880F46
:100B5000991F9B838A832FB7F8943981832F90E064
:100B6000FC01EE0FFF1FE80FF91FE154FE4F8A81D1
:100B70009B81928381832FBF40902001509021015F
:100B800096E0490E511C5092210140922001052C03
:100B9000000C660877084AE0C301B20177FE0DC079
:100BA0006DE282E291E00E94460166277727CB0141
:100BB00064197509860997094AE00E94560242E0C5
:100BC00050E062E171E082E291E00E94A600809133
:100BD0002001909121018A3591051CF560E08AE0A1
:100BE0000E94B30161E08CE00E94B30160E08BE001
:100BF0000E94B30168EC70E080E090E00E94240263
:100C0000C114D10409F453CF0E941001882309F4C0
:100C10004ECF0E9400004BCF109221011092200174
:100C2000ABCF843B910554F460E08AE00E94B301AD
:100C300061E08CE00E94B30161E0D9CF843B910573
:100C4000F9F661E08AE00E94B30161E08CE00E9465
:100C5000B30161E08BE00E94B30168EE73E080E0D5
:100C600090E0CCCF052E97FB1EF400940E9449061D
:100C700057FD07D00E94640607FC03D04EF40C9485
:100C8000490650954095309521953F4F4F4F5F4F06
:100C9000089590958095709561957F4F8F4F9F4FE8
:100CA00008950E948606A59F900DB49F900DA49F65
:100CB000800D911D11240895B7FF0C9451060E94D8
:100CC0005106821B930B0895A1E21A2EAA1BBB1B8F
:100CD000FD010DC0AA1FBB1FEE1FFF1FA217B30708
:100CE000E407F50720F0A21BB30BE40BF50B661F1E
:100CF000771F881F991F1A9469F7609570958095E2
:100D000090959B01AC01BD01CF010895A29FB00158
:100D1000B39FC001A39F700D811D1124911DB29F2F
:100D2000700D811D1124911D0895991B79E004C057
:100D3000991F961708F0961B881F7A95C9F780951A
:100D40000895EE0FFF1F0590F491E02D0994F8949B
:100D5000FFCF000000004601A600D300930104016C
:080D6000E200F6000D0A00009C
:107E0000112484B714BE81FFF0D085E080938100F7
:107E100082E08093C00088E18093C10086E0809377
:107E2000C20080E18093C4008EE0C9D0259A86E02C
:107E300020E33CEF91E0309385002093840096BBD3
:107E4000B09BFECF1D9AA8958150A9F7CC24DD24C4
:107E500088248394B5E0AB2EA1E19A2EF3E0BF2EE7
:107E6000A2D0813461F49FD0082FAFD0023811F036
:107E7000013811F484E001C083E08DD089C08234E0
:107E800011F484E103C0853419F485E0A6D080C0E4
:107E9000853579F488D0E82EFF2485D0082F10E0AE
:107EA000102F00270E291F29000F111F8ED06801E7
:107EB0006FC0863521F484E090D080E0DECF843638
:107EC00009F040C070D06FD0082F6DD080E0C81688
:107ED00080E7D80618F4F601B7BEE895C0E0D1E017
:107EE00062D089930C17E1F7F0E0CF16F0E7DF06D8
:107EF00018F0F601B7BEE89568D007B600FCFDCFD4
:107F0000A601A0E0B1E02C9130E011968C91119780
:107F100090E0982F8827822B932B1296FA010C0160
:107F200087BEE89511244E5F5F4FF1E0A038BF0790
:107F300051F7F601A7BEE89507B600FCFDCF97BE46
:107F4000E89526C08437B1F42ED02DD0F82E2BD052
:107F50003CD0F601EF2C8F010F5F1F4F84911BD097
:107F6000EA94F801C1F70894C11CD11CFA94CF0C13
:107F7000D11C0EC0853739F428D08EE10CD085E9AC
:107F80000AD08FE07ACF813511F488E018D01DD067
:107F900080E101D065CF982F8091C00085FFFCCF94
:107FA0009093C60008958091C00087FFFCCF809118
:107FB000C00084FD01C0A8958091C6000895E0E648
:107FC000F0E098E1908380830895EDDF803219F02E
:107FD00088E0F5DFFFCF84E1DECF1F93182FE3DFCA
:107FE0001150E9F7F2DF1F91089580E0E8DFEE27F6
:047FF000FF270994CA
:027FFE00040479
:00000001FF
