:100000000C945D000C9485000C9485000C94850084
:100010000C9485000C9485000C9485000C9485004C
:100020000C9485000C9485000C9485000C941003AE
:100030000C9485000C9485000C9485000C9485002C
:100040000C94C6020C9485000C9485000C948500D9
:100050000C9485000C9485000C9485000C9485000C
:100060000C9485000C94850000000008000201003B
:100070000003040700000000000000000000000072
:10008000250028002B0000000000240027002A0083
:10009000040404040404040402020202020203032E
:1000A0000303030301020408102040800102040836
:1000B0001020010204081020B90511241FBECFEF43
:1000C000D8E0DEBFCDBF11E0A0E0B1E0E6EBF1E1AA
:1000D00002C005900D92A232B107D9F721E0A2E249
:1000E000B1E001C01D92A237B207E1F710E0CDE503
:1000F000D0E004C02197FE010E94E106CC35D10773
:10010000C9F70E94CC030C94D9080C94000090E02D
:10011000FC01EC55FF4F249180579F4FFC018491C7
:10012000882399F090E0880F991FFC01EA57FF4F50
:10013000A591B491FC01E458FF4F859194918FB73C
:10014000F894EC91E22BEC938FBF0895AF92BF929D
:10015000CF92DF92EF92FF920F931F93CF93DF9393
:100160006C017B018B01040F151FEB015E01AE18C2
:10017000BF08C017D10759F06991D601ED91FC91E4
:100180000190F081E02DC6010995892B79F7C50111
:10019000DF91CF911F910F91FF90EF90DF90CF9063
:1001A000BF90AF90089590E0FC01E859FF4F249173
:1001B000FC01EC55FF4F3491FC01E057FF4FE491F7
:1001C000EE23C9F0222339F0233001F1A8F42130C5
:1001D00019F1223029F1F0E0EE0FFF1FE458FF4F34
:1001E000A591B4918FB7F894EC91611126C0309528
:1001F0003E233C938FBF08952730A9F02830C9F0E3
:10020000243049F7809180008F7D03C08091800069
:100210008F7780938000DFCF84B58F7784BDDBCF6D
:1002200084B58F7DFBCF8091B0008F778093B00035
:10023000D2CF8091B0008F7DF9CF3E2BDACF3FB780
:10024000F8948091290190912A01A0912B01B091FD
:100250002C0126B5A89B05C02F3F19F00196A11DC2
:10026000B11D3FBFBA2FA92F982F8827BC01CD0100
:10027000620F711D811D911D42E0660F771F881F5F
:10028000991F4A95D1F70895089590E080E0089568
:10029000CF93DF93EC0188819981009711F00E9440
:1002A0008307198218821D821C821B821A82DF91A9
:1002B000CF910895CF93DF93EC0160E08E810E948F
:1002C000D30061E08E810E94D30060E08E810E94A5
:1002D000D3008BE891E00197F1F7DF91CF9108957A
:1002E000CF92DF92EF92FF920F931F93CF93DF9302
:1002F0006C017C0187E0E80EF11CD0E0C0E0062F25
:1003000010E0B8010C2E02C0759567950A94E2F7CB
:100310006170F70181917F010E94D3002196C43062
:10032000D10579F7C601DF91CF911F910F91FF9011
:10033000EF90DF90CF900C945A01CF92DF92EF9222
:10034000FF920F931F93CF93DF93EC01F62E642F50
:100350008C810E94D3008D818F3F19F060E00E9454
:10036000D3000F2D10E08F8584FF25C06E0187E03C
:10037000C80ED11CF12CE12CB8010E2C02C07595D1
:1003800067950A94E2F76170F60181916F010E940E
:10039000D300FFEFEF1AFF0A88E0E816F10461F7D7
:1003A000CE01DF91CF911F910F91FF90EF90DF90E1
:1003B000CF900C945A01B80184E0759567958A95A1
:1003C000E1F7CE010E9470016F2DCE01DF91CF9138
:1003D0001F910F91FF90EF90DF90CF900C947001E0
:1003E00040E0682F86E591E00C949D01CF93DF9368
:1003F000823029F490916501986090936501809313
:10040000690110926A0180E480936B0180E180931E
:100410006C0180E580936D0180915A010E948700F4
:1004200080915B018F3F11F00E94870080915C01F9
:100430000E948700C6E5D1E09E012655314080919B
:10044000650184FD0AC084E090E0219628173907F1
:100450003CF48E810E948700EFCF88E090E0F5CFDA
:100460008BE39DE00197F1F760E080915A010E94D3
:10047000D30060E080915C010E94D30080915B0119
:100480008F3F19F060E00E94D3008091650184FDE8
:1004900039C063E086E591E00E947001CBE4D6E4C8
:1004A000CE010197F1F763E086E591E00E947001CB
:1004B0002197F1F763E086E591E00E94700183E502
:1004C00092E00197F1F762E086E591E00E94700109
:1004D0008091650180620E94F00184E08093660152
:1004E0008CE00E94F00181E00E94F0018BE39FE12B
:1004F0000197F1F782E08093670186E0DF91CF9169
:100500000C94F00180620E94F0018BE496E4019764
:10051000F1F78091650180620E94F00183E592E02D
:100520000197F1F78091650180620E94F001D0CFC0
:1005300041E00E949D0181E090E008950F931F9398
:10054000CF93DF93EC0188819981009759F02A813C
:100550003B812617370730F081E0DF91CF911F9163
:100560000F9108958B016F5F7F4F0E940C080097D9
:1005700059F0998388831B830A832C813D81232B27
:1005800059F7FC011082E8CF80E0E7CF1F920F926D
:100590000FB60F9211242F933F938F939F93AF9396
:1005A000BF938091250190912601A0912701B091E0
:1005B00028013091240123E0230F2D3758F50196AF
:1005C000A11DB11D20932401809325019093260144
:1005D000A0932701B09328018091290190912A01CD
:1005E000A0912B01B0912C010196A11DB11D80930A
:1005F000290190932A01A0932B01B0932C01BF9164
:10060000AF919F918F913F912F910F900FBE0F90BF
:100610001F90189526E8230F0296A11DB11DD2CF79
:100620001F920F920FB60F9211242F933F934F9367
:100630005F936F937F938F939F93AF93BF93CF936A
:10064000DF93EF93FF9380912301C0912201D0E0CB
:1006500087FF24C0109285001092840080912301AE
:100660008F5F8093230180912301082E000C990B4A
:100670008C179D0724F4809123018C30C4F1809164
:10068000840090918500049680349C4908F47AC0D7
:100690008091840090918500049676C0809123011A
:1006A000082E000C990B8C179D07C4F6E0912301CE
:1006B0008E2FEE0F990BFC01EE0FFF1FE80FF91FB5
:1006C000E35DFE4F808186FFC9CFE09123018E2F2D
:1006D000EE0F990BFC01EE0FFF1FE80FF91FE35D12
:1006E000FE4F808160E08F730E94D300B7CF2091CE
:1006F000840030918500E09123018E2FEE0F990B3D
:10070000FC01EE0FFF1FE80FF91FE35DFE4F818133
:100710009281820F931F9093890080938800E091CB
:1007200023018E2FEE0F990BFC01EE0FFF1FE80F38
:10073000F91FE35DFE4F808186FF11C0E091230128
:100740008E2FEE0F990BFC01EE0FFF1FE80FF91F24
:10075000E35DFE4F808161E08F730E94D300FF91C3
:10076000EF91DF91CF91BF91AF919F918F917F9149
:100770006F915F914F913F912F910F900FBE0F900E
:100780001F90189580E49CE99093890080938800DD
:100790008FEF80932301E3CFCF93DF93CDB7DEB705
:1007A00068970FB6F894DEBF0FBECDBF789484B5BE
:1007B000826084BD84B5816084BD85B5826085BD5D
:1007C00085B5816085BD80916E00816080936E00EB
:1007D00010928100809181008260809381008091DD
:1007E000810081608093810080918000816080938E
:1007F00080008091B10084608093B1008091B0004E
:1008000081608093B00080917A00846080937A0048
:1008100080917A00826080937A0080917A00816072
:1008200080937A0080917A00806880937A00109299
:10083000C100809151018C3008F050C089E00E94C5
:10084000870080915101282F30E0F901EE0FFF1F42
:10085000E20FF31FE35DFE4F9081907C99609083DF
:1008600010925201109253012CE0622F0E94CE068A
:10087000829FB001112430E020E0AB01420F531FF2
:10088000FA01EE0FFF1FE40FF51FE35DFE4F9081AD
:1008900096FD16C02F5F3F4F2C30310571F7811147
:1008A0000FC01092800082E080938100109285003A
:1008B00010928400B19A80916F00826080936F00E3
:1008C000E09151018E2F90E0FC01EE0FFF1FE80F29
:1008D000F91FE35DFE4F80818064808382E00E9487
:1008E000F601E1E0809169018111E0E0E195F0E03D
:1008F000EA5AFE4F848980680E94F0014BE050E084
:1009000062E171E086E591E00E94A600CE010196C9
:100910007C0175E4C72EC0927C0080917A008064CF
:1009200080937A0080917A0086FDFCCF80917800D8
:10093000A0917900BA2FA82F24EB30E00E94DA06AC
:100940002FEF33E040E050E00E9434063093550131
:1009500020935401243B31050CF0C9C0D0905101C3
:100960009BE09D1508F453C08091530148E5242E67
:1009700042E0342E281A310887FD3394220C331CB0
:10098000220C331C8091520108E810E0081B110969
:1009900087FD1395000F111F000F111F2801012E55
:1009A000000C66087708D90137FF02C0B0E0A0E06C
:1009B0009101032C000C440B550B241935094609F1
:1009C00057090E945E0624EB30E040E050E00E94B0
:1009D0003406420E531E641E751E401651062CF03E
:1009E0008101421453040CF4820102501109000FDA
:1009F000111F2FB7F8948D2D90E0FC01EE0FFF1F13
:100A0000E80FF91FE35DFE4F128301832FBFE091D2
:100A10006901E23008F097C0E150F0E0EA5AFE4F79
:100A200084898A5F80680E94F001809154019091CE
:100A300055011C8A1B8A1E8A1D8A188E1F8A4AE04D
:100A4000B7010E94FF05F70101900020E9F73197F7
:100A50008F010E191F09B801CE0143960E949E0214
:100A6000811173C0CE0143960E9448011A821982F7
:100A70001C821B821E821D820B891C890115110597
:100A800059F06F88788CB301C7010E949E028111D2
:100A900064C0C7010E9448010D811E810E5F1F4F77
:100AA000B801C7010E949E02882309F45EC0298113
:100AB0003A818D819E816EE171E0820F931F0E94C9
:100AC000D2081E830D834D815E8169817A8186E51E
:100AD00091E00E94A60089819A81009711F00E94FE
:100AE00083078B899C89009711F00E9483070E94DD
:100AF0001F014B015C0188EC482E512C612C712C9C
:100B00000E941F01681979098A099B09683E734090
:100B100081059105A8F321E0421A51086108710886
:100B200088EE880E83E0981EA11CB11C411451046C
:100B30006104710429F780E090E0892B09F4EBCE81
:100B40000E940000E6CEE1E068CF188F0F8BB7015E
:100B50008B899C890E94D20889CF7E826D82B801E0
:100B600089819A810E94D20897CFC7010E944801CB
:100B7000AACF809122018C30F0F591E0980F9093EC
:100B800022018093510190E0FC01EE0FFF1FE80F5E
:100B9000F91FE35DFE4F88EB9BE092838183109207
:100BA0005901109258018AE091E090935701809387
:100BB000560182E080935A018FEF80935B0183E0BE
:100BC00080935C0184E080935D0185E080935E0109
:100BD00086E080935F0187E080936001109261015D
:100BE00010926201109263011092640110926501EB
:100BF00081E00C94F6018FEF80935101D0CFBB2799
:100C00004A3031F4992322F4BDE2909581959F4FAB
:100C10000C940B06BB27FB015527AA27880F991FA9
:100C2000AA1FA41710F0A41B83955051B9F7A05D1B
:100C3000AA3308F0A95DA193009779F7B111B19398
:100C40001192CB010C942406DC01FC01672F7191F9
:100C50007723E1F7329704C07C916D9370836291A2
:100C6000AE17BF07C8F30895052E97FB1EF4009436
:100C70000E944B0657FD07D00E949D0607FC03D03B
:100C80004EF40C944B0650954095309521953F4F6E
:100C90004F4F5F4F089590958095709561957F4F68
:100CA0008F4F9F4F08950E94BF06A59F900DB49F40
:100CB000900DA49F800D911D11240895B7FF0C94F1
:100CC00053060E945306821B930B08952F923F9266
:100CD0004F925F926F927F928F929F92AF92BF924C
:100CE000CF92DF92EF92FF920F931F93CF93DF93F8
:100CF000CDB7DEB7CA1BDB0B0FB6F894DEBF0FBE55
:100D0000CDBF09942A88398848885F846E847D84A1
:100D10008C849B84AA84B984C884DF80EE80FD80A3
:100D20000C811B81AA81B981CE0FD11D0FB6F89419
:100D3000DEBF0FBECDBFED010895A1E21A2EAA1BA2
:100D4000BB1BFD010DC0AA1FBB1FEE1FFF1FA2177B
:100D5000B307E407F50720F0A21BB30BE40BF50B78
:100D6000661F771F881F991F1A9469F76095709501
:100D7000809590959B01AC01BD01CF010895A29F84
:100D8000B001B39FC001A39F700D811D1124911D5F
:100D9000B29F700D811D1124911D0895991B79E05A
:100DA00004C0991F961708F0961B881F7A95C9F7FB
:100DB000809508950E94BF06B7FF0895821B930B8C
:100DC0000895EE0FFF1F0590F491E02D09940F9305
:100DD0001F93CF93DF938230910510F482E090E06F
:100DE000E0917001F091710130E020E0B0E0A0E00E
:100DF000309799F42115310509F44AC0281B390BA5
:100E000024303105D8F58A819B816115710589F1FE
:100E1000FB0193838283FE0111C0408151810281D5
:100E2000138148175907E0F04817590799F41097AC
:100E300061F012960C93129713961C933296CF0181
:100E4000DF91CF911F910F9108950093700110933E
:100E50007101F4CF2115310551F04217530738F0D5
:100E6000A901DB019A01BD01DF01F801C1CFEF014A
:100E7000F9CF9093710180937001CDCFFE01E20F05
:100E8000F31F819391932250310939832883D7CF5F
:100E900020916E0130916F01232B41F420910201CA
:100EA0003091030130936F0120936E012091000176
:100EB000309101012115310541F42DB73EB7409124
:100EC000040150910501241B350BE0916E01F09156
:100ED0006F01E217F307A0F42E1B3F0B2817390709
:100EE00078F0AC014E5F5F4F2417350748F04E0F86
:100EF0005F1F50936F0140936E01819391939FCF39
:100F0000F0E0E0E09CCFCF93DF930097E9F0FC01A5
:100F1000329713821282A0917001B0917101ED019C
:100F200030E020E01097A1F420813181820F931FDF
:100F300020916E0130916F012817390709F061C0C7
:100F4000F0936F01E0936E01DF91CF910895EA0174
:100F5000CE17DF07E8F54A815B819E0141155105F7
:100F6000B1F7E901FB83EA8349915991C40FD51F79
:100F7000EC17FD0761F4808191810296840F951F23
:100F8000E90199838883828193819B838A83F0E03E
:100F9000E0E012968D919C9113970097B9F52D91F1
:100FA0003C911197CD010296820F931F20916E0103
:100FB00030916F012817390739F6309751F51092A3
:100FC000710110927001B0936F01A0936E01BCCFBC
:100FD000D383C28340815181840F951FC817D907DD
:100FE00061F44E5F5F4F88819981480F591F51838B
:100FF00040838A819B81938382832115310509F087
:10100000B0CFF0937101E09370019ECFFD01DC0140
:10101000C0CF13821282D7CFB0E0A0E0E2E1F8E0C7
:101020000C9468068C01009751F4CB010E94E706EE
:101030008C01C801CDB7DEB7E0E10C948406FC0159
:10104000E60FF71F9C0122503109E217F30708F45D
:101050009DC0D901CD91DC911197C617D70798F0A3
:10106000C530D10530F3CE0104978617970708F3F2
:10107000C61BD70B2297C193D1936D937C93CF015D
:101080000E948307D6CF5B01AC1ABD0A4C018C0EBF
:101090009D1EA0917001B0917101512C412CF12C39
:1010A000E12C109731F580916E0190916F018815B8
:1010B000990509F05CC04616570608F058C08091A3
:1010C000000190910101009741F48DB79EB74091C6
:1010D000040150910501841B950BE817F90708F0EE
:1010E00055C0F0936F01E0936E01F9017183608345
:1010F000A0CF8D919C91119712966C901297139698
:101100007C901397A815B90559F56C0142E0C40EFF
:10111000D11CCA14DB0420F1AC014A195B09DA01C5
:101120001296159780F06282738251834083D901B1
:101130006D937C93E114F10471F0D7011396FC9345
:10114000EE93129776CF22968C0F9D1FF901918313
:101150008083F301EFCFF0937101E093700169CFC9
:101160004816590608F42C017D01D3019ACFCB0112
:101170000E94E7067C01009749F0AE01B8010E9489
:10118000C908C8010E948307870153CF10E000E01F
:1011900050CFFB01DC0102C001900D924150504044
:1011A000D8F70895FB01DC0101900D920020E1F7D2
:0611B0000895F894FFCF42
:1011B600000072018000000000009802A6004501B0
:1011C60044015A6164616E79206B6174610020206C
:0211D600000017
:00000001FF
