:100000000C949E000C94C6000C94C6000C94C60080
:100010000C94C6000C94C6000C94C6000C94C60048
:100020000C94C6000C94C6000C94C6000C94C60038
:100030000C94C6000C94C6000C94C6000C94C60028
:100040000C943C0A0C94C6000C94C6000C94C60098
:100050000C94C6000C94C6000C94C6000C94C60008
:100060000C94860A0C94C60007634236B79BD8A747
:100070001A39685618AEBAAB558C1D3CB7CC5763CD
:10008000BD6DEDFD753EF6177231BF000000803F7B
:1000900008000000BE922449123EABAAAA2ABECD97
:1000A000CCCC4C3E00000080BEABAAAAAA3E000009
:1000B0000000BF000000803F000000000008417801
:1000C000D3BB4387D1133D190E3CC3BD4282AD2B38
:1000D0003E68EC8276BED98FE1A93E4C80EFFFBE30
:1000E00001C4FF7F3F000000000000000008000284
:1000F00001000003040700000000000000000000F1
:100100000000250028002B0000000000240027002C
:100110002A00040404040404040402020202020289
:1001200003030303030301020408102040800102BB
:1001300004081020010204081020A50B11241FBE82
:10014000CFEFD8E0DEBFCDBF11E0A0E0B1E0EEEE32
:10015000F3E202C005900D92A039B107D9F722E071
:10016000A0E9B1E001C01D92A33AB207E1F710E0A7
:10017000CEE9D0E004C02197FE010E94E011CD3904
:10018000D107C9F70E94150C0C94F5110C940000CE
:100190000895089590E0FC01EA5DFE4F24918E5E83
:1001A0009E4FFC018491882399F090E0880F991F5D
:1001B000FC01E85FFE4FA591B491FC01E250FF4FB6
:1001C000859194918FB7F894EC91E22BEC938FBFCB
:1001D000089580915D0290915E02891B990B0895AC
:1001E000AF92BF92CF92DF92EF92FF920F931F9345
:1001F000CF93DF936C017B018B01040F151FEB0183
:100200005E01AE18BF08C017D10759F06991D60139
:10021000ED91FC910190F081E02DC6010995892BAB
:1002200079F7C501DF91CF911F910F91FF90EF906A
:10023000DF90CF90BF90AF90089590E0FC01E65121
:10024000FF4F2491FC01EA5DFE4F3491FC01EE5E0C
:10025000FE4FE491EE23C9F0222339F0233001F15F
:10026000A8F4213019F1223029F1F0E0EE0FFF1F40
:10027000E250FF4FA591B4918FB7F894EC916111C2
:1002800026C030953E233C938FBF08952730A9F0B8
:100290002830C9F0243049F7809180008F7D03C059
:1002A000809180008F7780938000DFCF84B58F7737
:1002B00084BDDBCF84B58F7DFBCF8091B0008F777D
:1002C0008093B000D2CF8091B0008F7DF9CF3E2BCC
:1002D000DACF3FB7F8948091D9019091DA01A091DB
:1002E000DB01B091DC0126B5A89B05C02F3F19F0BA
:1002F0000196A11DB11D3FBFBA2FA92F982F8827A6
:10030000BC01CD01620F711D811D911D42E0660F80
:10031000771F881F991F4A95D1F708958F929F9252
:10032000AF92BF92CF92DF92EF92FF924B015C01AE
:100330000E9469016B017C010E9469016C197D09B1
:100340008E099F09683E734081059105A8F321E05D
:10035000821A9108A108B10888EEC80E83E0D81E61
:10036000E11CF11C81149104A104B10429F7FF9050
:10037000EF90DF90CF90BF90AF909F908F900895B7
:1003800008952091B101260F3327331F2132310503
:10039000ECF420912F02FC0190E080E0243069F021
:1003A00082E00895A091B1012191AC014F565E4FBA
:1003B000A40FB52FB11D2C930196861798F3809149
:1003C000B101680F6093B10180E0089581E0089564
:1003D00010922F0281E080932E021092090261E0B8
:1003E00082E10E941D0161E083E10E941D01E9EBB1
:1003F000F0E080818E7F808380818D7F808388E4A0
:100400008093B80085E48093BC000895CF93DF9378
:1004100091E0909390018823B9F0C091B800D091F9
:10042000BA008091BC008A7B8093BC0060E082E1CE
:100430000E941D0160E083E10E941D010E94E8010D
:10044000D093BA00C093B800DF91CF9108958F92F6
:100450009F92AF92BF92CF92DF92EF92FF920F9353
:100460001F93CF93DF93D0915B02D13208F0D7C0B6
:10047000182FC09156020E9469016B017C01809186
:100480002F0281116BC082E080932F0210932E0205
:100490008FEF80932D0210922C02D0932B02A6E3B3
:1004A000B2E0EBE0F2E080E0D81391C010920A02D3
:1004B00080910A02CC0FC82BC0930A0280910902D6
:1004C000813009F088C0109209020E9469016B0115
:1004D0007C0180910A028093BB008091310290914F
:1004E0003202A0913302B0913402892B8A2B8B2BDC
:1004F000A1F00E9469010091310210913202209115
:100500003302309134026C197D098E099F09061758
:1005100017072807390708F442C08091BC0083FD03
:10052000D8CF85EC8093BC000E9469016B017C01EF
:1005300080912F02823009F450C080912D028F3FAC
:1005400009F46FC080912D02803209F46CC0809153
:100550002D02803309F469C084E026C08091310205
:1005600090913202A0913302B0913402892B8A2BF0
:100570008B2B09F484CF0E94690180903102909006
:100580003202A0903302B09034026C197D098E09BA
:100590009F0986169706A806B90608F070CF8091C5
:1005A00030020E94060285E010925C0210925B020B
:1005B00010923502DF91CF911F910F91FF90EF9034
:1005C000DF90CF90BF90AF909F908F9008959D91B6
:1005D00091938F5F69CF85EEA5CF80913102909185
:1005E0003202A0913302B0913402892B8A2B8B2BDB
:1005F00009F49ECF0E9469010091310210913202EC
:1006000020913302309134026C197D098E099F09C3
:10061000061717072807390708F08ACFC0CF81E0EF
:10062000C3CF80E0C1CF82E0BFCF83E0BDCF0895CC
:10063000E0915E0280915D02E81730F4F0E0E7514E
:10064000FE4F808190E008958FEF9FEF0895909185
:100650005E0280915D022FEF3FEF981748F4E92F7B
:10066000F0E0E751FE4F208130E09F5F90935E0203
:10067000C9010895CF92DF92EF92FF920F931F93DB
:10068000CF93DF937C01CB018A0120913502222395
:1006900089F0EB016B01C40ED51ECC15DD0569F0A8
:1006A0006991D701ED91FC910190F081E02DC70196
:1006B0000995F3CF642F0E94C101C801DF91CF914A
:1006C0001F910F91FF90EF90DF90CF900895CF93FF
:1006D000DF931F92CDB7DEB76983209135022223C5
:1006E000F9F020915B02203258F021E030E0FC016B
:1006F0003383228390E080E00F90DF91CF910895C3
:1007000080915C02E82FF0E0EA5CFD4F99819083D4
:100710008F5F80935C0280935B0281E090E0ECCF7E
:1007200061E0CE0101960E94C101F7CF90E080E028
:1007300008950F931F93CF938C01CBEFD801ED91C8
:10074000FC910680F781E02DC8010995811109C04F
:10075000C15041F062E070E080E090E00E948E01C4
:10076000EDCF81E0CF911F910F91089581E08093AB
:10077000350286E78093560210925C0210925B026B
:1007800060EE8FE592E00E94670366EB8FE592E0F2
:100790000E94670381E00C9427028F929F92AF9290
:1007A000BF92CF92DF92EF92FF920F931F93CF935E
:1007B000DF938B01C42F91E09093350296E79093DD
:1007C000560210925C0210925B02682F8FE592E055
:1007D0000E94670380E00E9427020E9469016B016A
:1007E0007C0180912F02811164C081E080932F02EF
:1007F00080932E029FEF90932D0210922C029C0F5B
:1008000090932B0280930A0280910A028C6E80934F
:100810000A0280910902813009F084C01092090215
:100820000E9469016B017C0180910A028093BB00E8
:100830008091310290913202A0913302B091340242
:10084000892B8A2B8B2BA1F00E94690180903102A9
:1008500090903202A0903302B09034026C197D095E
:100860008E099F0986169706A806B90608F442C0A5
:100870008091BC0083FDD8CF85EC8093BC000E94A2
:1008800069016B017C0180912F02813009F44CC019
:1008900080912C028C1710F4C0912C02ABE0B2E0D6
:1008A000E9EEF1E080E08C1751F19D9191938F5F1B
:1008B000FACF8091310290913202A0913302B0912F
:1008C0003402892B8A2B8B2B09F48BCF0E94690170
:1008D0008090310290903202A0903302B0903402A6
:1008E0006C197D098E099F0986169706A806B90618
:1008F00008F077CF809130020E940602C0E010928B
:100900005E02C0935D02D0E080915E02C81771F173
:100910008FE592E00E942703F801ED0FF11D80831F
:10092000DF5FF2CF85EEA9CF809131029091320244
:10093000A0913302B0913402892B8A2B8B2B09F4BE
:10094000A2CF0E9469018090310290903202A09063
:100950003302B09034026C197D098E099F09861606
:100960009706A806B90608F08ECFC4CF81E0DF91C4
:10097000CF911F910F91FF90EF90DF90CF90BF909C
:10098000AF909F908F900C942702EF92FF920F935D
:100990001F93CF93DF931F92CDB7DEB7F82E062FAC
:1009A000E42E41E0BE016F5F7F4F0E94CD03102F08
:1009B0001095898118230E21102B198381E08093D3
:1009C000350286E78093560210925C0210925B0219
:1009D0006F2D8FE592E00E946703612F8FE592E013
:1009E0000E94670381E00E9427020F90DF91CF9160
:1009F0001F910F91FF90EF90089541E063E084EF25
:100A00000C94C50402970C94FD0440E0611143E08E
:100A100063E084EF0C94C5044F925F926F927F92D3
:100A20008F929F92AF92BF92CF92DF92EF92FF92FE
:100A30000F931F93CF93DF9300D01F92CDB7DEB7F4
:100A40008C0143E0BE016F5F7F4F87EF0E94CD03B3
:100A50008090870290908802A0908902B0908A02CC
:100A6000B594A794979487948AEF981AA108B1082F
:100A7000C501B401F2E09595879577956795FA954C
:100A8000D1F79B01AC010E949B112B013C01A0916D
:100A90007902B0917A02AC019B018DE055954795A2
:100AA000379527958A95D1F70E94D8116B017C0163
:100AB00093E0F594E794D794C7949A95D1F7A091D1
:100AC0007702B0917802A50194010E94D8119B0190
:100AD000AC0155954795379527952C0D3D1D4E1D1D
:100AE0005F1D72E155954795379527957A95D1F712
:100AF00030584F4F5F4FA0917102B09172020E9427
:100B0000CD116B017C01EFE0F594E794D794C79485
:100B1000EA95D1F7C114D104E104F10409F4DCC071
:100B2000A30192016BE055954795379527956A95F6
:100B3000D1F7A0917F02B09180020E94D8112B01C1
:100B40003C01A0917D02B0917E02A50194010E941A
:100B5000D811DC01CB01880F991FAA1FBB1F840D80
:100B6000951DA61DB71D4C015D01E2E0B594A7944B
:100B700097948794EA95D1F729818A81322F282F7B
:100B800050E040E0F4E0220F331F441F551FFA9558
:100B9000D1F78B8190E0A4E095958795AA95E1F730
:100BA000092E000CAA0BBB0B282B392B4A2B5B2BD5
:100BB00080917B0290917C02092E000CAA0BBB0B4A
:100BC000DC0199278827880D991DAA1DBB1D7CE093
:100BD000B595A795979587957A95D1F7280F391FE1
:100BE0004A1F5B1FABECB3EF0E94DB11805B9C43A1
:100BF000F801608371838283938397FD81C0660FC0
:100C0000771F881F991FA70196010E94AB11F80159
:100C1000208331834283538380809180A280B3807C
:100C2000C501B40123E096958795779567952A9538
:100C3000D1F79B01AC010E949B119B01AC016DE0BF
:100C400056954795379527956A95D1F7A0918502D6
:100C5000B09186020E94D8116B017C017CE0F59472
:100C6000E794D794C7947A95D1F7A5019401A2E0AF
:100C70005695479537952795AA95D1F7A091830268
:100C8000B09184020E94D811BDE095958795779523
:100C90006795BA95D1F7C60ED71EE81EF91E80914A
:100CA000810290918202092E000CAA0BBB0B8C0DC5
:100CB0009D1DAE1DBF1D6C017D0114E0F594E794F0
:100CC000D794C7941A95D1F7C80CD91CEA1CFB1C01
:100CD000C082D182E282F3820F900F900F90DF9159
:100CE000CF911F910F91FF90EF90DF90CF90BF9029
:100CF000AF909F908F907F906F905F904F900895EE
:100D0000A70196010E94AB11220F331F441F551FEC
:100D10007ECFCF93DF931F92CDB7DEB741E0BE0108
:100D20006F5F7F4F83EF0E94CD03898183FB88270C
:100D300080F991E089270F90DF91CF9108950F936B
:100D40001F93CF93DF9300D0CDB7DEB78C0181E046
:100D50008093350286E78093560210925C021092CF
:100D60005B0281E00E9427028111D9C0D801ED9178
:100D7000FC910280F381E02DC801099564E070E0E8
:100D800080E090E00E948E0144E16CE184EF0E94DB
:100D9000C50440E460EE84EF0E94C50440E06CE1CD
:100DA00085EF0E94C50440E060EE85EF0E94C50417
:100DB00040E061E085EF0E94C50442E0BE016F5F44
:100DC0007F4F88E80E94CD038A81998189279827DF
:100DD0008927F8019583848342E0BE016F5F7F4FCE
:100DE0008AE80E94CD0389819A81D80119969C9343
:100DF0008E93189742E0BE016F5F7F4F8CE80E9490
:100E0000CD0389819A81F8019387828742E0BE01F0
:100E10006F5F7F4F8EE80E94CD038A819981892779
:100E200098278927D80117969C938E93169742E0AE
:100E3000BE016F5F7F4F80E90E94CD0389819A8157
:100E4000F8019587848742E0BE016F5F7F4F82E99A
:100E50000E94CD0389819A81D8011F969C938E931D
:100E60001E9742E0BE016F5F7F4F84E90E94CD0371
:100E700089819A81F801918B808B42E0BE016F5F7E
:100E80007F4F86E90E94CD0389819A81D8015396CC
:100E90009C938E93529742E0BE016F5F7F4F88E92B
:100EA0000E94CD0389819A81F801958B848B42E061
:100EB000BE016F5F7F4F8AE90E94CD0389819A81CD
:100EC000D80157969C938E93569742E0BE016F5F70
:100ED0007F4F8CE90E94CD0389819A81F801918F1F
:100EE000808F42E0BE016F5F7F4F8EE90E94CD038D
:100EF00089819A81D8015B969C938E935A97ED9144
:100F0000FC910190F081E02D61E0C801099581E03C
:100F10000F900F90DF91CF911F910F91089580E076
:100F2000F7CFCF93DF93EC0160E08E810E941D012B
:100F300061E08E810E941D0160E08E810E941D0192
:100F40008BE891E00197F1F7DF91CF910895CF926F
:100F5000DF92EF92FF920F931F93CF93DF936C0179
:100F60007C0187E0E80EF11CD0E0C0E0062F10E025
:100F7000B8010C2E02C0759567950A94E2F761706E
:100F8000F70181917F010E941D012196C430D10596
:100F900079F7C601DF91CF911F910F91FF90EF90EC
:100FA000DF90CF900C949107CF92DF92EF92FF9257
:100FB0000F931F93CF93DF93EC01F62E642F8C8158
:100FC0000E941D018D818F3F19F060E00E941D017C
:100FD0000F2D10E08F8584FF25C06E0187E0C80EBD
:100FE000D11CF12CE12CB8010E2C02C0759567952F
:100FF0000A94E2F76170F60181916F010E941D0170
:10100000FFEFEF1AFF0A88E0E816F10461F7CE015E
:10101000DF91CF911F910F91FF90EF90DF90CF90D4
:101020000C949107B80184E0759567958A95E1F76E
:10103000CE010E94A7076F2DCE01DF91CF911F91A6
:101040000F91FF90EF90DF90CF900C94A70740E0B6
:10105000682F8BE892E00C94D407CF93DF93823013
:1010600029F490919A02986090939A0280939E023C
:1010700010929F0280E48093A00280E18093A102FD
:1010800080E58093A20280918F020E94CA00809125
:1010900090028F3F11F00E94CA00809191020E943D
:1010A000CA00CBE8D2E09E012B58324080919A02D0
:1010B00084FD0AC084E090E02196281739073CF4AB
:1010C0008E810E94CA00EFCF88E090E0F5CF8BE3DD
:1010D0009DE00197F1F760E080918F020E941D0171
:1010E00060E0809191020E941D01809190028F3FEB
:1010F00019F060E00E941D0180919A0284FD39C0C0
:1011000063E08BE892E00E94A707CBE4D6E4CE012F
:101110000197F1F763E08BE892E00E94A70721971F
:10112000F1F763E08BE892E00E94A70783E592E085
:101130000197F1F762E08BE892E00E94A7078091A7
:101140009A0280620E94270884E080939B028CE0D0
:101150000E94270881E00E9427088BE39FE1019706
:10116000F1F782E080939C0286E0DF91CF910C94AE
:10117000270880620E9427088BE496E40197F1F724
:1011800080919A0280620E94270883E592E001978D
:10119000F1F780919A0280620E942708D0CF41E047
:1011A0000E94D40781E090E00895FC0101900020A6
:1011B000E9F73197AF01481B590BBC018BE892E06E
:1011C0000C94F0008F929F92AF92BF920F931F9357
:1011D000CF93DF93CDB7DEB7A1970FB6F894DEBFFC
:1011E0000FBECDBF19A2423008F44AE08E010F5D58
:1011F0001F4F842E912CB12CA12CA50194010E948B
:10120000AB11E62FB901CA01EA30F4F4E05DD80170
:10121000EE938D01232B242B252B79F790E080E092
:10122000109719F0CD010E94D508A1960FB6F89439
:10123000DEBF0FBECDBFDF91CF911F910F91BF9049
:10124000AF909F908F900895E95CE1CF4F925F92AD
:101250006F927F928F929F92AF92BF92CF92DF92C6
:10126000EF92FF920F931F93CF936B017C01742E2B
:10127000AC019B010E946110882399F08CE391E0FE
:10128000CF911F910F91FF90EF90DF90CF90BF9083
:10129000AF909F908F907F906F905F904F900C9445
:1012A000D50846015701E894B7F82FEF3FEF4FE715
:1012B0005FE7C501B4010E94611081110DC02FEFDD
:1012C0003FEF4FE75FE7C501B4010E94470E1816D4
:1012D0001CF480E491E0D4CF2FEF3FEF4FE75FE4C1
:1012E000C701B6010E949F0F18161CF484E491E018
:1012F000C7CF2FEF3FEF4FE75FECC701B6010E946A
:10130000470E87FDF3CF20E030E0A901C701B60109
:101310000E94470E10E000E087FF0CC041E06DE244
:101320008BE892E00E94D407F7FAF094F7F8F09473
:1013300001E010E0C0E060E070E080E09FE37C1638
:1013400041F020E030E040E251E40E944C0ECF5FDB
:10135000F6CFA70196010E94DB0D4B015C010E94B4
:10136000BE0E2B013C014AE00E94E208080F191F43
:10137000CC23C9F1C301B2010E94ED0E9B01AC0167
:10138000C501B4010E94DA0D4B015C0141E06EE23F
:101390008BE892E00E94D4070F5F1F4FC15018F1F5
:1013A00020E030E040E251E4C501B4010E94A40F06
:1013B0002B013C010E94BE0E4B01B12CA12C4AE036
:1013C000C501B4010E94E208080F191FC501B4014C
:1013D0000E94ED0E9B01AC01C301B2010E94DA0D27
:1013E0004B015C01DBCFC801CF911F910F91FF90A2
:1013F000EF90DF90CF90BF90AF909F908F907F90B5
:101400006F905F904F90089585ED8093BC00809120
:10141000310290913202A0913302B09134020796CA
:10142000A11DB11D23E0B695A795979587952A959F
:10143000D1F72091BC0024FD03C010922F02089523
:101440004091310250913202609133027091340226
:10145000452B462B472B69F30097A105B10541F0B9
:1014600025E32A95F1F700000197A109B109E1CF21
:10147000809130020C9406021F920F920FB60F92C9
:1014800011242F933F938F939F93AF93BF9380919A
:10149000D5019091D601A091D701B091D80130919A
:1014A000D40123E0230F2D3758F50196A11DB11D5E
:1014B0002093D4018093D5019093D601A093D701B6
:1014C000B093D8018091D9019091DA01A091DB010C
:1014D000B091DC010196A11DB11D8093D9019093BB
:1014E000DA01A093DB01B093DC01BF91AF919F9132
:1014F0008F913F912F910F900FBE0F901F901895D5
:1015000026E8230F0296A11DB11DD2CF1F920F9284
:101510000FB60F9211242F933F934F935F936F93C6
:101520007F938F939F93AF93BF93EF93FF9380919C
:10153000B900887F803609F44AC0F0F5883209F492
:10154000A7C018F5803109F49BC0B8F4882309F4CA
:10155000F9C0883009F494C0FF91EF91BF91AF9129
:101560009F918F917F916F915F914F913F912F91BB
:101570000F900FBE0F901F901895883109F488C006
:10158000803251F780932D0214C0803409F49DC03D
:1015900040F48033B9F38833F9F680932D0285EC5B
:1015A000B0C0803509F485C0883509F496C0883408
:1015B00099F60E94040AD0CF883909F48CC038F516
:1015C000883729F050F4883611F0803729F683E007
:1015D00080932F021092D30157C0883809F47BC042
:1015E000803919F0803809F0B7CF8091D30180326B
:1015F00008F071C0E091D30181E08E0F8093D30198
:101600008091BB00F0E0ED54FE4F80833DC0803BF5
:1016100039F0E0F4803A09F479C0883A09F09CCFB7
:1016200084E080932F021092B2011092B101E091F8
:101630005902F0915A0209958091B10181110FC0B0
:1016400081E08093B1011092910109C0803C09F4BE
:10165000A6CF883C09F4A3CF883B09F07DCFE09169
:10166000B20181E08E0F8093B201F0E0EF56FE4FA1
:1016700080818093BB009091B2018091B10129C01B
:1016800080910A028093BB0085EC8093BC0064CFFC
:1016900090912C0280912B02981758F5E0912C0222
:1016A00081E08E0F80932C02F0E0E55FFD4F80819A
:1016B000E9CFE0912C0281E08E0F80932C02809183
:1016C000BB00F0E0E55FFD4F808390912C0280919C
:1016D0002B029817C8F285E8D8CFE0912C0281E060
:1016E0008E0F80932C028091BB00F0E0E55FFD4FF0
:1016F000808380912E0281115CCF81E0809309026A
:1017000084EA8093BC0010922F0226CF85EC809350
:10171000BC0010922F028091D301803230F4E0910E
:10172000D301F0E0ED54FE4F10826091D30170E0E0
:10173000E0915702F091580283EB91E009951092E5
:10174000D3010ACF10922D0234CFEFE5F2E01382DD
:10175000128288EE93E0A0E0B0E084839583A683B4
:10176000B7838CE091E09183808310925E021092A7
:101770005D0210925C0210925B020E94E80188EC0C
:1017800090E090935A028093590289EC90E09093F4
:10179000580280935702449A459A8CE08093B8008F
:1017A000EBE8F2E01382128284E391E0918380837C
:1017B00082E084838FEF858383E0868384E0878360
:1017C00085E0808786E0818787E08287138614869C
:1017D00015861686178681E00E942D08EBE6F2E05A
:1017E0008EE191E0918380838EE291E09383828306
:1017F000158214821782168211861086138612862D
:101800001586148617861686118A108A138A128AFC
:10181000158A148A178A168A118E108E138E128ECC
:10182000148E158E168E178E0895CF93DF9300D0E9
:1018300000D0CDB7DEB7789484B5826084BD84B51E
:10184000816084BD85B5826085BD85B5816085BDBB
:1018500080916E00816080936E0010928100809173
:1018600081008260809381008091810081608093FB
:101870008100809180008160809380008091B10020
:1018800084608093B1008091B00081608093B0004B
:1018900080917A00846080937A0080917A008260DF
:1018A00080937A0080917A00816080937A008091A1
:1018B0007A00806880937A001092C10082E00E94D2
:1018C0002D0880E50E94270800E011E0A8E0EA2E3C
:1018D000A1E0FA2EF80161918F018BE892E00E945D
:1018E000CF08E016F106B1F782E00E9427088BE3EB
:1018F0009FE10197F1F788E491E00E94D5088BE61B
:1019000092E00E949F06882309F44DC186E591E08C
:101910000E94D5080BE31FE1F0E0EF2EF0E0FF2E70
:101920008BE692E00E94990343E0BE016F5F7F4F18
:101930008AEF0E94CD0389819A8189279827892778
:10194000B0E0A0E024E0880F991FAA1FBB1F2A95D2
:10195000D1F72B8130E044E0359527954A95E1F7A2
:10196000032E000C440B550B822B932BA42BB52B71
:1019700040916F025091700270E060E04C015D0197
:10198000E4E0B594A79497948794EA95D1F7841AE4
:10199000950AA60AB70AF3E0B595A7959795879596
:1019A000FA95D1F7440F551F661F771F2C013D0193
:1019B000441A550A660A770AA3019201A09173029C
:1019C000B09174020E94D8112B013C013BE0759448
:1019D0006794579447943A95D1F7A5019401C501AE
:1019E000B4010E949B119B01AC016CE05595479599
:1019F000379527956A95D1F7A0917502B091760237
:101A00000E94D8119B01AC017EE055954795379512
:101A100027957A95D1F7240D351D461D571D209326
:101A20008702309388024093890250938A02A2E38E
:101A3000B0E00E94CD117B5F8F4F9F4F672F782FB3
:101A4000892F992787FD9A950E94EF0E20E030E0BC
:101A50004AE754E40E944C0E6093E5017093E6015E
:101A60008093E7019093E801CE0101960E940C0556
:101A700069817A818B819C810E94ED0E6093E101E6
:101A80007093E2018093E3019093E401CE0101960B
:101A90000E940C0569817A818B819C810E94ED0EE8
:101AA00020E836EE45EC57E40E944C0E2EEA3CED61
:101AB00042E45EE30E9411109B01AC0160E070E023
:101AC00080E89FE30E94DA0D20E03AE24DE257E41D
:101AD0000E94A40F6093DD017093DE018093DF010B
:101AE0009093E0018BE692E00E94FD0481E00E9469
:101AF0002708C8010197F1F782E00E942708C80172
:101B00000197F1F782E791E00E94D5086091DD012D
:101B10007091DE018091DF019091E00142E00E942E
:101B2000260986E791E00E94D5086091E101709155
:101B3000E2018091E3019091E40142E00E942609D4
:101B40008DE791E00E94D508E0919E02E23080F599
:101B5000E150F0E0E557FD4F848980680E94270836
:101B600080E891E00E94D5086091E5017091E6015E
:101B70008091E7019091E80142E00E94260984E506
:101B800091E00E94D50862E08BE892E00E94CF08C5
:101B90008EE891E00E94D508E114F10409F4C0CE6A
:101BA0000E940000BDCE83E691E00E94D508FFCFE1
:101BB000E1E0CFCF5058BB27AA270E94F20D0C942A
:101BC000650F0E94570F38F00E945E0F20F039F425
:101BD0009F3F19F426F40C94540F0EF4E095E7FBA4
:101BE0000C944E0FE92F0E94760F58F3BA17620734
:101BF00073078407950720F079F4A6F50C94980FE5
:101C00000EF4E0950B2EBA2FA02D0B01B901900117
:101C10000C01CA01A0011124FF27591B99F0593F5B
:101C200050F4503E68F11A16F040A22F232F342FA3
:101C30004427585FF3CF469537952795A795F040F1
:101C40005395C9F77EF41F16BA0B620B730B840B06
:101C5000BAF09150A1F0FF0FBB1F661F771F881FBE
:101C6000C2F70EC0BA0F621F731F841F48F4879516
:101C700077956795B795F7959E3F08F0B0CF939508
:101C8000880F08F09927EE0F9795879508950E9481
:101C90002A0F08F481E008950E94600E0C94650FED
:101CA0000E945E0F58F00E94570F40F029F45F3FEA
:101CB00029F00C944E0F51110C94990F0C94540F61
:101CC0000E94760F68F39923B1F3552391F3951B86
:101CD000550BBB27AA2762177307840738F09F5F4D
:101CE0005F4F220F331F441FAA1FA9F335D00E2EBA
:101CF0003AF0E0E832D091505040E695001CCAF727
:101D00002BD0FE2F29D0660F771F881FBB1F2617E9
:101D100037074807AB07B0E809F0BB0B802DBF01C0
:101D2000FF2793585F4F3AF09E3F510578F00C948F
:101D30004E0F0C94990F5F3FE4F3983ED4F38695D1
:101D400077956795B795F7959F5FC9F7880F911DB0
:101D50009695879597F90895E1E0660F771F881F9C
:101D6000BB1F621773078407BA0720F0621B730B4F
:101D7000840BBA0BEE1F88F7E09508950E947E0F42
:101D800088F09F5798F0B92F9927B751B0F0E1F03C
:101D9000660F771F881F991F1AF0BA95C9F714C0EC
:101DA000B13091F00E94980FB1E008950C94980F13
:101DB000672F782F8827B85F39F0B93FCCF3869525
:101DC00077956795B395D9F73EF490958095709582
:101DD00061957F4F8F4F9F4F0895E89409C097FBFF
:101DE0003EF490958095709561957F4F8F4F9F4FF2
:101DF0009923A9F0F92F96E9BB279395F695879536
:101E000077956795B795F111F8CFFAF4BB0F11F4F8
:101E100060FF1BC06F5F7F4F8F4F9F4F16C088239F
:101E200011F096E911C0772321F09EE8872F762FD5
:101E300005C0662371F096E8862F70E060E02AF016
:101E40009A95660F771F881FDAF7880F9695879502
:101E500097F90895990F0008550FAA0BE0E8FEEFD7
:101E600016161706E807F907C0F012161306E4075E
:101E7000F50798F0621B730B840B950B39F40A2657
:101E800061F0232B242B252B21F408950A2609F435
:101E9000A140A6958FEF811D811D089597F99F6739
:101EA00080E870E060E008959FEF80EC08950024E2
:101EB0000A941616170618060906089500240A94AF
:101EC00012161306140605060895092E0394000C35
:101ED00011F4882352F0BB0F40F4BF2B11F460FFC4
:101EE00004C06F5F7F4F8F4F9F4F089557FD9058ED
:101EF000440F551F59F05F3F71F04795880F97FBCE
:101F0000991F61F09F3F79F0879508951216130687
:101F10001406551FF2CF4695F1DF08C016161706B6
:101F20001806991FF1CF86957105610508940895EB
:101F3000E894BB2766277727CB0197F908950E947D
:101F40002A0F08F48FEF08950E94B70F0C94650FC5
:101F50000E94570F38F00E945E0F20F0952311F079
:101F60000C944E0F0C94540F11240C94990F0E9452
:101F7000760F70F3959FC1F3950F50E0551F629F48
:101F8000F001729FBB27F00DB11D639FAA27F00DD2
:101F9000B11DAA1F649F6627B00DA11D661F829FF9
:101FA0002227B00DA11D621F739FB00DA11D621FDE
:101FB000839FA00D611D221F749F3327A00D611DFB
:101FC000231F849F600D211D822F762F6A2F1124DD
:101FD0009F5750409AF0F1F088234AF0EE0FFF1F10
:101FE000BB1F661F771F881F91505040A9F79E3F67
:101FF000510580F00C944E0F0C94990F5F3FE4F361
:10200000983ED4F3869577956795B795F795E795BC
:102010009F5FC1F7FE2B880F911D9695879597F9C5
:102020000895FA01EE0FFF1F309621053105A1F149
:102030006115710561F48038BFE39B0749F168942D
:102040009038810561F08038BFEF9B0741F09923FC
:102050004AF5FF3FE1053105210519F1E89408949F
:10206000E795D901AA2329F4AB2FBE2FF85FD0F34F
:1020700010C0FF5F70F4A695E0F7F73950F019F043
:10208000FF3A38F49F779F930DD00F9007FC90583C
:10209000089546F00C94540F60E070E080E89FE3F0
:1020A00008954FE79F775F934F933F932F930E943D
:1020B00011112F913F914F915F910E94A40F0C94A9
:1020C0006E100E942A0F880B990B089529F416F0C0
:1020D0000C944E0F0C94980F0C94540F0E947E0F8A
:1020E000A8F39638A0F707F80F92E8942BE33AEAA2
:1020F00048EB5FE70E94BA0F0F920F920F924DB715
:102100005EB70F920E945911E8E6F0E00E94A0101D
:102110004F915F91EF91FF91E595EE1FFF1F49F001
:10212000FE57E0684427EE0F441FFA95E1F741950A
:10213000550B0E94D3100F9007FE0C94C710089502
:10214000DF93CF931F930F93FF92EF92DF927B0168
:102150008C01689406C0DA2EEF010E94B70FFE01D1
:10216000E894A5912591359145915591A6F3EF01FC
:102170000E94F20DFE019701A801DA9469F7DF9041
:10218000EF90FF900F911F91CF91DF9108959B01E8
:10219000AC0160E070E080E89FE30C944C0E0C947E
:1021A0004E0F0C948D110E947E0FD8F39923C9F322
:1021B000940F511DA3F39150504094F059F088238F
:1021C00032F0660F771F881F91505040C1F79E3F35
:1021D00051052CF7880F911D9695879597F90895CD
:1021E0005F3FACF0983E9CF0BB278695779567954E
:1021F000B79508F4B1609395C1F7BB0F58F711F488
:1022000060FFE8CF6F5F7F4F8F4F9F4FE3CF0C94FE
:10221000990F16F00C948D110C94540F68940C9433
:102220004E0F0E947E0FA8F39923C1F3AEF3DF9304
:10223000CF931F930F93FF92C92FDD2788232AF096
:102240002197660F771F881FDAF720E030E040E81B
:102250005FEB9FE3883920F0803E38F021968F773E
:102260000E94DB0DE0E9F0E004C00E94DB0DEDEB25
:10227000F0E00E94A0108B01BE01EC01FB2E6F5715
:1022800071097595771F880B990B0E94EF0E28E155
:1022900032E741E35FE30E94B70FAF2D9801AE0133
:1022A000FF900F911F91CF91DF910E94F20D0C943E
:1022B000650FFA01DC01AA0FBB1F9B01AC01BF57E0
:1022C00028F4222733274427507820C0B75190F4B0
:1022D000AB2F0024469537952795011CA395D2F383
:1022E000002071F0220F331F441FB395DAF30ED094
:1022F0000C94DA0D61307105A0E88A07B94630F414
:102300009B01AC016627772788279078309621F0CB
:10231000208331834283538308959F3F31F091504E
:1023200020F4879577956795B795880F911D9695B9
:10233000879597F90895DB018F939F930E94CD11A4
:10234000BF91AF91A29F800D911DA39F900DB29F51
:10235000900D11240895A1E21A2EAA1BBB1BFD01AA
:102360000DC0AA1FBB1FEE1FFF1FA217B307E40774
:10237000F50720F0A21BB30BE40BF50B661F771FCC
:10238000881F991F1A9469F76095709580959095AC
:102390009B01AC01BD01CF0108950E94E611A59FEC
:1023A000900DB49F900DA49F800D911D1124089550
:1023B000B7FF0C94CD110E94CD11821B930B089591
:1023C000EE0FFF1F0590F491E02D0994A29FB0013C
:1023D000B39FC001A39F700D811D1124911DB29F59
:0E23E000700D811D1124911D0895F894FFCFFA
:1023EE0002050200000000000000000067033A032F
:1023FE0096031703E90027031803000000000505E4
:10240E00B6039F0689069903FD04FEFF0000020530
:10241E0000000000CF08F0009603C0016E616E0050
:10242E00696E66006F7666005465737420424D5077
:10243E003238303A200053656E736F7220666F75B6
:10244E006E640053656E736F72206D697373696E7F
:10245E006700483A20006D2C20503A200050610051
:10246E0054656D70657261747572653A2000430033
:00000001FF
