:100000000C945D000C9485000C9485000C94850084
:100010000C9485000C9485000C9485000C9485004C
:100020000C9485000C9485000C9485000C9485003C
:100030000C9485000C9485000C9485000C9485002C
:100040000C9475020C9485000C9443020C941D02D0
:100050000C9485000C9485000C9485000C9485000C
:100060000C9485000C94850000000008000201003B
:100070000003040700000000000000000000000072
:10008000250028002B0000000000240027002A0083
:10009000040404040404040402020202020203032E
:1000A0000303030301020408102040800102040836
:1000B00010200102040810203E0411241FBECFEFBF
:1000C000D8E0DEBFCDBF11E0A0E0B1E0ECE8FBE09E
:1000D00002C005900D92A631B107D9F721E0A6E143
:1000E000B1E001C01D92AC3BB207E1F710E0CDE5F5
:1000F000D0E004C02197FE010E94BE05CC35D10797
:10010000C9F70E94BF020C94C4050C940000EDEAEC
:10011000F0E02491E9E9F0E08491882399F090E0FF
:10012000880F991FFC01EA57FF4FA591B491FC017C
:10013000E458FF4F859194918FB7F894EC91E22B9E
:10014000EC938FBF0895E1E7F0E02491EDEAF0E051
:100150009491E9E9F0E0E491EE23C9F0222339F02B
:10016000233001F1A8F4213019F1223029F1F0E017
:10017000EE0FFF1FE458FF4FA591B4912FB7F894ED
:10018000EC91811126C090959E239C932FBF0895DA
:100190002730A9F02830C9F0243049F72091800099
:1001A0002F7D03C0209180002F7720938000DFCF28
:1001B00024B52F7724BDDBCF24B52F7DFBCF209135
:1001C000B0002F772093B000D2CF2091B0002F7DC8
:1001D000F9CF9E2BDACFAF92BF92CF92DF92EF9200
:1001E000FF920F931F93CF93DF936C017B018B01E1
:1001F000040F151FEB015E01AE18BF08C017D10731
:1002000059F06991D601ED91FC910190F081E02DBA
:10021000C6010995892B79F7C501DF91CF911F910F
:100220000F91FF90EF90DF90CF90BF90AF90089527
:10023000FC01538D448D252F30E0842F90E0821BEC
:10024000930B541710F0CF96089501970895FC0171
:10025000918D828D981761F0A28DAE0FBF2FB11DC9
:100260005D968C91928D9F5F9F73928F90E0089521
:100270008FEF9FEF0895FC01918D828D981731F0DB
:10028000828DE80FF11D858D90E008958FEF9FEF2F
:100290000895FC01918D228D892F90E0805C9F4F05
:1002A000821B91098F73992708958FE191E00E9435
:1002B000490121E0892B09F420E0822F089580E094
:1002C00090E0892B29F00E94550181110C940000C7
:1002D0000895FC01A48DA80FB92FB11DA35ABF4FDB
:1002E0002C91848D90E001968F739927848FA68935
:1002F000B7892C93A089B1898C91837080648C9389
:10030000938D848D981306C00288F389E02D808137
:100310008F7D80830895EF92FF920F931F93CF9369
:10032000DF93EC0181E0888F9B8D8C8D98131AC030
:10033000E889F989808185FF15C09FB7F894EE8917
:10034000FF896083E889F989808183708064808374
:100350009FBF81E090E0DF91CF911F910F91FF90BF
:10036000EF900895F62E0B8D10E00F5F1F4F0F7367
:100370001127E02E8C8D8E110CC00FB607FCFACF22
:10038000E889F989808185FFF5CFCE010E94690156
:10039000F1CFEB8DEC0FFD2FF11DE35AFF4FF082F3
:1003A0009FB7F8940B8FEA89FB8980818062CFCF59
:1003B000CF93DF93EC01888D8823B9F0AA89BB899C
:1003C000E889F9898C9185FD03C0808186FD0DC087
:1003D0000FB607FCF7CF8C9185FFF2CF808185FFA8
:1003E000EDCFCE010E946901E9CFDF91CF91089551
:1003F0003FB7F89480911B0190911C01A0911D01C1
:10040000B0911E0126B5A89B05C02F3F19F001969B
:10041000A11DB11D3FBFBA2FA92F982F8827BC015E
:10042000CD01620F711D811D911D42E0660F771F86
:10043000881F991F4A95D1F708951F920F920FB602
:100440000F9211242F933F934F935F936F937F935A
:100450008F939F93AF93BF93EF93FF938FE191E0BF
:100460000E946901FF91EF91BF91AF919F918F9190
:100470007F916F915F914F913F912F910F900FBEA0
:100480000F901F9018951F920F920FB60F92112484
:100490002F938F939F93EF93FF93E0912F01F09110
:1004A00030018081E0913501F091360182FD1BC061
:1004B0009081809138018F5F8F732091390182176D
:1004C00041F0E0913801F0E0E15EFE4F958F8093BE
:1004D0003801FF91EF919F918F912F910F900FBE57
:1004E0000F901F9018958081F4CF1F920F920FB636
:1004F0000F9211242F933F938F939F93AF93BF93AA
:100500008091170190911801A0911901B0911A01E1
:100510003091160123E0230F2D3758F50196A11DC8
:10052000B11D209316018093170190931801A09399
:100530001901B0931A0180911B0190911C01A091A7
:100540001D01B0911E010196A11DB11D80931B01DB
:1005500090931C01A0931D01B0931E01BF91AF9118
:100560009F918F913F912F910F900FBE0F901F90F1
:10057000189526E8230F0296A11DB11DD2CFCF9367
:10058000DF93CDB7DEB7A1970FB6F894DEBF0FBEED
:10059000CDBF789484B5826084BD84B5816084BD0C
:1005A00085B5826085BD85B5816085BD80916E0011
:1005B000816080936E001092810080918100826042
:1005C000809381008091810081608093810080917F
:1005D00080008160809380008091B100846080936E
:1005E000B1008091B00081608093B00080917A006A
:1005F000846080937A0080917A00826080937A0090
:1006000080917A00816080937A0080917A0080687E
:1006100080937A001092C100E0912F01F091300197
:1006200082E08083E0912B01F0912C011082E09117
:100630002D01F0912E018FEC808310923701E09113
:100640003301F091340186E08083E0913101F09133
:100650003201808180618083E0913101F09132012B
:10066000808188608083E0913101F0913201808146
:1006700080688083E0913101F091320180818F7D2B
:1006800080830E94870090E4392E2AE0422E512C6C
:10069000612C712C30927C0080917A008064809370
:1006A0007A0080917A0086FDFCCF8091780060917D
:1006B0007900762F682F072E000C880B990B0E946B
:1006C000A30420ED3FE34FE75EE30E9407050E948D
:1006D0006B046B018B010E948700C114D10409F0E7
:1006E00070C080E00E94A3000D2C000CEE08FF08F3
:1006F000F7FEAEC06DE28FE191E00E948B012227F0
:100700003327A9012C193D094E095F0919A28E0151
:100710000F5D1F4FCA01B901A30192010E949C0500
:10072000605DF80162938F01211531054105510586
:1007300089F70115110561F001900020E9F7319763
:10074000AF01401B510BB8018FE191E00E94EB001B
:1007500042E050E062E171E08FE191E00E94EB0045
:100760000E94F8014B015C018AE0C82ED12CE12CDB
:10077000F12C0E94F801681979098A099B09683EE1
:10078000734081059105A8F3F1E0CF1AD108E10883
:10079000F10828EE820E23E0921EA11CB11CC114A8
:1007A000D104E104F10429F780E090E0892B09F4F9
:1007B00071CF0E945501882309F46CCF0E9400007C
:1007C00069CF0F3F110511F481E08CCFE1E7F0E034
:1007D0008491833019F140F48130B1F08230C9F056
:1007E000003811058CF77DCF873011F1883041F149
:1007F0008430B1F780918000806280938000D09235
:100800008B00C0928A0070CF84B5806884BDC7BC5D
:100810006BCF84B5806284BDC8BC66CF80918000F8
:10082000806880938000D0928900C09288005CCF5D
:100830008091B00080688093B000C092B30054CF24
:100840008091B00080628093B000C092B4004CCF21
:10085000A701960119A28E010F5D1F4FCA01B901B0
:10086000A30192010E949C05605DF80162938F01D3
:10087000211531054105510589F75BCFEFE1F1E025
:100880001382128288EE93E0A0E0B0E08483958327
:10089000A683B78384E091E09183808385EC90E028
:1008A0009587848784EC90E09787868780EC90E03A
:1008B000918B808B81EC90E0938B828B82EC90E02B
:1008C000958B848B86EC90E0978B868B118E128EA5
:1008D000138E148E08950E9472046894B1110C94C2
:1008E000010508950E94E60488F09F5798F0B92FFB
:1008F0009927B751B0F0E1F0660F771F881F991F55
:100900001AF0BA95C9F714C0B13091F00E940005F1
:10091000B1E008950C940005672F782F8827B85F01
:1009200039F0B93FCCF3869577956795B395D9F7AC
:100930003EF490958095709561957F4F8F4F9F4FB6
:100940000895E89409C097FB3EF4909580957095C2
:1009500061957F4F8F4F9F4F9923A9F0F92F96E90B
:10096000BB279395F695879577956795B795F11180
:10097000F8CFFAF4BB0F11F460FF1BC06F5F7F4F1D
:100980008F4F9F4F16C0882311F096E911C077232F
:1009900021F09EE8872F762F05C0662371F096E838
:1009A000862F70E060E02AF09A95660F771F881F07
:1009B000DAF7880F9695879597F9089557FD90581F
:1009C000440F551F59F05F3F71F04795880F97FB13
:1009D000991F61F09F3F79F08795089512161306CD
:1009E0001406551FF2CF4695F1DF08C016161706FC
:1009F0001806991FF1CF8695710561050894089531
:100A0000E894BB2766277727CB0197F908950E94C2
:100A10001A050C948B050E947D0538F00E94840510
:100A200020F0952311F00C9474050C947A05112490
:100A30000C9401050E94DE0470F3959FC1F3950F9D
:100A400050E0551F629FF001729FBB27F00DB11D52
:100A5000639FAA27F00DB11DAA1F649F6627B00DE2
:100A6000A11D661F829F2227B00DA11D621F739FCB
:100A7000B00DA11D621F839FA00D611D221F749FD9
:100A80003327A00D611D231F849F600D211D822F20
:100A9000762F6A2F11249F5750409AF0F1F0882347
:100AA0004AF0EE0FFF1FBB1F661F771F881F915074
:100AB0005040A9F79E3F510580F00C9474050C94AA
:100AC00001055F3FE4F3983ED4F3869577956795EB
:100AD000B795F795E7959F5FC1F7FE2B880F911D9E
:100AE0009695879597F9089597F99F6780E870E044
:100AF00060E008959FEF80EC089500240A94161694
:100B0000170618060906089500240A9412161306FB
:100B1000140605060895092E0394000C11F4882389
:100B200052F0BB0F40F4BF2B11F460FF04C06F5FA5
:100B30007F4F8F4F9F4F0895A1E21A2EAA1BBB1B18
:100B4000FD010DC0AA1FBB1FEE1FFF1FA217B30799
:100B5000E407F50720F0A21BB30BE40BF50B661FAF
:100B6000771F881F991F1A9469F760957095809573
:100B700090959B01AC01BD01CF010895EE0FFF1FC1
:0C0B80000590F491E02D0994F894FFCF4B
:100B8C00000000008B01EB001801D801490127017E
:060B9C003B010D0A000000
:00000001FF
