:020000040000FA
:100000000C9462000C948A000C948A000C948A0070
:100010000C948A000C948A000C948A000C948A0038
:100020000C948A000C948A000C948A000C948A0028
:100030000C948A000C948A000C948A000C948A0018
:100040000C94A3060C948A000C9471060C944B0635
:100050000C948A000C948A000C948A000C948A00F8
:100060000C948A000C948A000000000024002700F1
:100070002A0000000000250028002B0000000008D6
:10008000000201000003040700000000000000005F
:1000900000000000230026002900040404040404D6
:1000A0000404020202020202030303030303010227
:1000B00004081020408001020408102001020408F6
:1000C0001020ED0611241FBECFEFD8E0DEBFCDBF5C
:1000D00011E0A0E0B1E0EEECF6E102C005900D9277
:1000E000A036B107D9F722E0A0E6B1E001C01D9229
:1000F000A133B207E1F710E0C2E6D0E004C02197D7
:10010000FE010E945F0BC136D107C9F70E94580754
:100110000C94650B0C940000CF92DF92EF92FF924B
:10012000CF93DF93B0910D02A0E08111AB2F8091AE
:100130000E0290E0880F991FAC0140575F4FC090AE
:100140001302D0901402E0901502F090160230E0F5
:1001500020E0FA01C591D491E881B90190E080E0F6
:10016000EB23EA130AC02F5F3F4F6C157D058E0508
:100170009F0578F36FEF7FEFCB01DF91CF91FF9079
:10018000EF90DF90CF900895FC01538D448D252F83
:1001900030E0842F90E0821B930B541710F0CF9621
:1001A000089501970895FC01918D828D981761F053
:1001B000A28DAE0FBF2FB11D5D968C91928D9F5F6A
:1001C0009F73928F90E008958FEF9FEF0895FC0149
:1001D000918D828D981731F0828DE80FF11D858DFC
:1001E00090E008958FEF9FEF0895FC01918D228D8F
:1001F000892F90E0805C9F4F821B91098F73992714
:100200000895FC01A48DA80FB92FB11DA35ABF4FAB
:100210002C91848D90E001968F739927848FA68905
:10022000B7892C93A089B1898C91837080648C9359
:10023000938D848D981306C00288F389E02D808108
:100240008F7D80830895EF92FF920F931F93CF933A
:10025000DF93EC0181E0888F9B8D8C8D98131AC001
:10026000E889F989808185FF15C09FB7F894EE89E8
:10027000FF896083E889F989808183708064808345
:100280009FBF81E090E0DF91CF911F910F91FF9090
:10029000EF900895F62E0B8D10E00F5F1F4F0F7338
:1002A0001127E02E8C8D8E110CC00FB607FCFACFF3
:1002B000E889F989808185FFF5CFCE010E9401018F
:1002C000F1CFEB8DEC0FFD2FF11DE35AFF4FF082C4
:1002D0009FB7F8940B8FEA89FB8980818062CFCF2A
:1002E000CF93DF93EC01888D8823B9F0AA89BB896D
:1002F000E889F9898C9185FD03C0808186FD0DC058
:100300000FB607FCF7CF8C9185FFF2CF808185FF78
:10031000EDCFCE010E940101E9CFDF91CF91089589
:1003200089E691E00E94F50021E0892B09F420E0A4
:10033000822F089580E090E0892B29F00E9490019F
:1003400081110C9400000895AF92BF92CF92DF927A
:10035000EF92FF920F931F93CF93DF936C017B017A
:100360008B01040F151FEB015E01AE18BF08C0170B
:10037000D10759F06991D601ED91FC910190F0817E
:10038000E02DC6010995892B79F7C501DF91CF9141
:100390001F910F91FF90EF90DF90CF90BF90AF90A3
:1003A000089590E0FC01E458FF4F2491FC01E255D0
:1003B000FF4F3491FC01E656FF4FE491EE23C9F064
:1003C000222339F0233001F1A8F4213019F1223031
:1003D00029F1F0E0EE0FFF1FEE58FF4FA591B49109
:1003E0008FB7F894EC91611126C030953E233C9371
:1003F0008FBF08952730A9F02830C9F0243049F77D
:10040000809180008F7D03C0809180008F778093E2
:100410008000DFCF84B58F7784BDDBCF84B58F7D3F
:10042000FBCF8091B0008F778093B000D2CF8091C6
:10043000B0008F7DF9CF3E2BDACFCF93DF9390E0E2
:10044000FC01E255FF4F249186569F4FFC01849199
:100450008823D1F090E0880F991FFC01E859FF4FE5
:10046000A591B491FC01EE58FF4FC591D491623033
:1004700071F49FB7F8943C91822F809583238C93DD
:10048000E8812E2B28839FBFDF91CF9108958FB7EE
:10049000F894EC912E2B2C938FBFF6CF3FB7F894A6
:1004A0008091610190916201A0916301B09164011A
:1004B00026B5A89B05C02F3F19F00196A11DB11DBF
:1004C0003FBFBA2FA92F982F8827BC01CD01620FFB
:1004D000711D811D911D42E0660F771F881F991FB6
:1004E0004A95D1F708958F929F92AF92BF92CF9283
:1004F000DF92EF92FF924B015C010E944E026B0172
:100500007C010E944E026C197D098E099F09683E8C
:10051000734081059105A8F321E0821A9108A10892
:10052000B10888EEC80E83E0D81EE11CF11C8114CE
:100530009104A104B10429F7FF90EF90DF90CF90D0
:10054000BF90AF909F908F900895CF92DF92EF92DF
:10055000FF920F931F93CF93DF93CDB7DEB7C054B5
:10056000D1400FB6F894DEBF0FBECDBF2FB7F894C1
:100570008091650190916601A0916701B091680139
:100580002FBF40910F0250911002609111027091A3
:1005900012028C019D01041B150B260B370BB901B0
:1005A000A801403D57406105710590F48091170204
:1005B000C05CDE4F0FB6F894DEBF0FBECDBFDF913B
:1005C000CF911F910F91FF90EF90DF90CF90089502
:1005D00080930F0290931002A0931102B093120225
:1005E00010920A0210920902109208021092070259
:1005F0001092060262E080910B020E941D0261E0EF
:1006000070E080E090E00E94730261E080910B0254
:100610000E941D0260E080910B020E94D101809136
:100620000C028551823020F58BE291E10197F1F7C0
:1006300062E080910B020E941D028091180290E0FE
:100640008230910538F0880F991F880F991F059700
:100650000197F1F7F89480E00E948C006F3F7F4F84
:100660008F4F9F4F61F410921702789480E0A0CFD3
:1006700064E170E080E090E00E947302D9CF81E0F5
:100680000E948C006F3F7F4F8F4F9F4F61F38E0111
:100690000F5F1F4F6E018FEBC81A8EEFD80A7801DB
:1006A00080E00E948C00F7016083718382839383D2
:1006B00081E00E948C00F7016483758386839783B1
:1006C000F8E0EF0EF11CEC14FD0451F7789430E0E3
:1006D00020E0F801C080D180E280F3804481558120
:1006E00066817781FFEFCF16DF06EF06FF0631F058
:1006F0004F3F8FEF58076807780719F410921702D9
:10070000B5CFF90183E0F595E7958A95E1F7EA5FC2
:10071000FD4F8081880FC416D506E606F70610F156
:1007200080832F5F3F4F085F1F4F2832310589F6C6
:1007300040910A022091060280910702280F332778
:10074000331F80910802280F311D80910902820F0A
:10075000932F911D99274817190681F681E0809300
:10076000170226CF8160DCCF089590E080E00895E5
:10077000FC0101900020E9F73197AF01481B590BAC
:10078000BC0189E192E00C94A4018F929F92AF92F8
:10079000BF920F931F93CF93DF93CDB7DEB7A1978F
:1007A0000FB6F894DEBF0FBECDBF19A2423008F4D9
:1007B0004AE08E010F5D1F4F842E912CB12CA12C8D
:1007C000A50194010E943D0BE62FB901CA01EA3050
:1007D000F4F4E05DD801EE938D01232B242B252B1F
:1007E00079F790E080E0109719F0CD010E94B803EE
:1007F000A1960FB6F894DEBF0FBECDBFDF91CF91AB
:100800001F910F91BF90AF909F908F900895E95CDA
:10081000E1CFCF93DF93EC0160E08E810E94D101A4
:1008200061E08E810E94D10160E08E810E94D10141
:100830008BE891E00197F1F7DF91CF910895CF9286
:10084000DF92EF92FF920F931F93CF93DF936C0190
:100850007C0187E0E80EF11CD0E0C0E0062F10E03C
:10086000B8010C2E02C0759567950A94E2F7617085
:10087000F70181917F010E94D1012196C430D105F9
:1008800079F7C601DF91CF911F910F91FF90EF9003
:10089000DF90CF900C940904CF92DF92EF92FF92F9
:1008A0000F931F93CF93DF93EC01F62E642F8C816F
:1008B0000E94D1018D818F3F19F060E00E94D1012B
:1008C0000F2D10E08F8584FF25C06E0187E0C80ED4
:1008D000D11CF12CE12CB8010E2C02C07595679546
:1008E0000A94E2F76170F60181916F010E94D101D3
:1008F000FFEFEF1AFF0A88E0E816F10461F7CE0176
:10090000DF91CF911F910F91FF90EF90DF90CF90EB
:100910000C940904B80184E0759567958A95E1F710
:10092000CE010E941F046F2DCE01DF91CF911F9148
:100930000F91FF90EF90DF90CF900C941F0440E058
:10094000682F89E192E00C944C04CF93DF938230BE
:1009500029F49091280298609093280280932C02A9
:1009600010922D0280E480932E0280E180932F026A
:1009700080E58093300261E080911D020E941D029B
:1009800080911E028F3F19F061E00E941D0261E01C
:1009900080911F020E941D02C9E1D2E09E012951EF
:1009A00032408091280284FD0BC084E090E02196C3
:1009B0002817390744F461E08E810E941D02EECFB2
:1009C00088E090E0F4CF8BE39DE00197F1F760E0E1
:1009D00080911D020E94D10160E080911F020E945F
:1009E000D10180911E028F3F19F060E00E94D10179
:1009F0008091280284FD39C063E089E192E00E9481
:100A00001F04CBE4D6E4CE010197F1F763E089E15E
:100A100092E00E941F042197F1F763E089E192E0E0
:100A20000E941F0483E592E00197F1F762E089E1FB
:100A300092E00E941F048091280280620E949F041D
:100A400084E0809329028CE00E949F0481E00E9450
:100A50009F048BE39FE10197F1F782E080932A02E4
:100A600086E0DF91CF910C949F0480620E949F04E6
:100A70008BE496E40197F1F78091280280620E944E
:100A80009F0483E592E00197F1F78091280280624C
:100A90000E949F04D0CF41E00E944C0481E090E08E
:100AA00008950F931F93CF93DF938B0128E0829FCC
:100AB000C001112480640E949F04E801085F1F4F59
:100AC000699189E192E00E944B05C017D107C1F7F7
:100AD000DF91CF911F910F9108954F925F926F9286
:100AE0007F928F929F92AF92BF92CF92DF92EF92BE
:100AF000FF920F931F93CF936B017C01742EAC0177
:100B00009B010E94380B882399F086E391E0CF91F6
:100B10001F910F91FF90EF90DF90CF90BF90AF901B
:100B20009F908F907F906F905F904F900C94B80340
:100B300046015701E894B7F82FEF3FEF4FE75FE723
:100B4000C501B4010E94380B81110DC02FEF3FEF9A
:100B50004FE75FE7C501B4010E946E0918161CF447
:100B60008AE391E0D4CF2FEF3FEF4FE75FE4C70177
:100B7000B6010E94C60A18161CF48EE391E0C7CF96
:100B80002FEF3FEF4FE75FECC701B6010E946E0900
:100B900087FDF3CF20E030E0A901C701B6010E9434
:100BA0006E0910E000E087FF0CC041E06DE289E1D2
:100BB00092E00E944C04F7FAF094F7F8F09401E008
:100BC00010E0C0E060E070E080E09FE37C1641F060
:100BD00020E030E040E251E40E947309CF5FF6CF9D
:100BE000A70196010E9402094B015C010E94E509E0
:100BF0002B013C014AE00E94C503080F191FCC23BA
:100C0000C9F1C301B2010E94140A9B01AC01C501E4
:100C1000B4010E9401094B015C0141E06EE289E1EF
:100C200092E00E944C040F5F1F4FC15018F120E06A
:100C300030E040E251E4C501B4010E94CB0A2B012F
:100C40003C010E94E5094B01B12CA12C4AE0C501F1
:100C5000B4010E94C503080F191FC501B4010E9409
:100C6000140A9B01AC01C301B2010E9401094B01AE
:100C70005C01DBCFC801CF911F910F91FF90EF90E6
:100C8000DF90CF90BF90AF909F908F907F906F90AC
:100C90005F904F9008951F920F920FB60F921124FC
:100CA0002F933F934F935F936F937F938F939F9374
:100CB000AF93BF93EF93FF9389E691E00E94010108
:100CC000FF91EF91BF91AF919F918F917F916F9124
:100CD0005F914F913F912F910F900FBE0F901F90FA
:100CE00018951F920F920FB60F9211242F938F9386
:100CF0009F93EF93FF93E0917901F0917A018081C6
:100D0000E0917F01F091800182FD1BC09081809174
:100D100082018F5F8F7320918301821741F0E091F0
:100D20008201F0E0E759FE4F958F80938201FF9199
:100D3000EF919F918F912F910F900FBE0F901F9069
:100D400018958081F4CF1F920F920FB60F92112445
:100D50002F933F938F939F93AF93BF9380916501A0
:100D600090916601A0916701B09168013091600196
:100D700023E0230F2D3758F50196A11DB11D2093B7
:100D800060018093650190936601A0936701B09321
:100D900068018091610190916201A0916301B0911D
:100DA00064010196A11DB11D8093610190936201C0
:100DB000A0936301B0936401BF91AF919F918F9114
:100DC0003F912F910F900FBE0F901F90189526E81E
:100DD000230F0296A11DB11DD2CFE9E6F1E01382E7
:100DE000128288EE93E0A0E0B0E084839583A6832E
:100DF000B7838CE191E09183808385EC90E09587C7
:100E0000848784EC90E09787868780EC90E0918BD4
:100E1000808B81EC90E0938B828B82EC90E0958BC1
:100E2000848B86EC90E0978B868B118E128E138EBE
:100E3000148EE9E1F2E0138212828EE291E0918356
:100E4000808382E084838FEF858383E0868384E0E0
:100E5000878385E0808786E0818787E082871386A5
:100E6000148615861686178681E00E94A504A6E0E2
:100E7000B2E088E015968C93159786E116968C93D0
:100E80001697E6EBF0E0E4911796EC931797E2EAF9
:100E9000F0E0E4911896EC93189740E85EE360E088
:100EA00070E01D964D935D936D937C9350970895DC
:100EB000789484B5826084BD84B5816084BD85B535
:100EC000826085BD85B5816085BD80916E00816041
:100ED00080936E00109281008091810082608093E7
:100EE00081008091810081608093810080918000E9
:100EF0008160809380008091B10084608093B10014
:100F00008091B00081608093B00080917A0084600D
:100F100080937A0080917A00826080937A00809139
:100F20007A00816080937A0080917A008068809353
:100F30007A001092C10082E00E94A50482E491E050
:100F40000E94B80360E171E080E00E94510568E012
:100F500071E081E00E94510560E071E082E00E9452
:100F6000510562E080910B020E941D022FB7F89498
:100F70008091650190916601A0916701B09168012F
:100F80002FBF805D9740A109B10980930F02909314
:100F90001002A0931102B093120287E3809318020B
:100FA000CBE3DFE100E010E068EB7BE080E090E085
:100FB0000E9473020E94A502882341F080910C02D6
:100FC0008C3009F463C048F48B3001F1C12CD12C72
:100FD00090ECE92E9FE7F92E43C085518230B0F79F
:100FE000B09008026B2D70E0762F662766277F771A
:100FF00080910902682B90E080E00E94140A2DEC99
:101000003CEC4CEC5DE30E94CB0A5CC060910802B2
:1010100070E090E080E00E94140A4B015C01F090C7
:101020000902F7FE0AC0AC019B0160E070E080E8B5
:101030009FEB0E9401094B015C016F2D6F7070E006
:1010400090E080E00E94160A2DEC3CEC4CEC5DE355
:101050000E94CB0AA50194010E9402096B017C0148
:101060000E94A502882309F464C080910C028B3091
:1010700030F08D3080F18551823008F470C0812CC1
:10108000912C80ECA82E8FE7B82E43C0B0900802B8
:101090006B2D70E090E080E00E94140A6B017C01EF
:1010A000609109026F7070E090E080E00E94160A83
:1010B0002DEC3CEC4CEC5DE30E94CB0AA7019601C1
:1010C0000E9402096B017C01B7FECACFF7FAF094C7
:1010D000F7F8F094C5CF6091070270E090E080E0EF
:1010E0000E94160A2DEC3CEC4CEC5DE30E94CB0A0E
:1010F0004B015C016091060270E090E080E00E948C
:10110000160A9B01AC01C501B4010E9402094B0102
:101110005C01A7019601C701B6010E94380B81113D
:1011200008C0A5019401C501B4010E94380B8823B1
:1011300041F182E00E949F04CE010197F1F78BE418
:1011400091E00E94B8030115110509F42DCF0E940A
:101150009001882309F428CF0E94000025CF6091D8
:1011600006027091070276276727762790E080E0D5
:101170000E94140A2DEC3CEC4CEC5DE30E94CB0A7F
:10118000C6CF82E00E949F04CE010197F1F760E094
:1011900089E192E00E944B0588E591E00E94B80346
:1011A00042E0C701B6010E946D0588E591E00E940A
:1011B000B80362E089E192E00E944B058AE591E084
:1011C0000E94B803E0912C02E230C8F4E150F0E054
:1011D000E75EFD4F848980680E949F0461E089E199
:1011E00092E00E944B0588E591E00E94B80342E03E
:1011F000C501B4010E946D058CE591E0A2CFE1E04C
:10120000E6CF5058BB27AA270E9419090C948C0AD4
:101210000E947E0A38F00E94850A20F039F49F3F30
:1012200019F426F40C947B0A0EF4E095E7FB0C9479
:10123000750AE92F0E949D0A58F3BA1762077307CF
:101240008407950720F079F4A6F50C94BF0A0EF4F4
:10125000E0950B2EBA2FA02D0B01B90190010C01C6
:10126000CA01A0011124FF27591B99F0593F50F4DE
:10127000503E68F11A16F040A22F232F342F442736
:10128000585FF3CF469537952795A795F04053952E
:10129000C9F77EF41F16BA0B620B730B840BBAF0FE
:1012A0009150A1F0FF0FBB1F661F771F881FC2F769
:1012B0000EC0BA0F621F731F841F48F4879577957D
:1012C0006795B795F7959E3F08F0B0CF9395880F37
:1012D00008F09927EE0F9795879508950E94510A77
:1012E00008F481E008950E9487090C948C0A0E94FA
:1012F000850A58F00E947E0A40F029F45F3F29F0E9
:101300000C94750A51110C94C00A0C947B0A0E942B
:101310009D0A68F39923B1F3552391F3951B550B5F
:10132000BB27AA2762177307840738F09F5F5F4FB8
:10133000220F331F441FAA1FA9F335D00E2E3AF0F7
:10134000E0E832D091505040E695001CCAF72BD00F
:10135000FE2F29D0660F771F881FBB1F2617370760
:101360004807AB07B0E809F0BB0B802DBF01FF2792
:1013700093585F4F3AF09E3F510578F00C94750AF0
:101380000C94C00A5F3FE4F3983ED4F386957795BA
:101390006795B795F7959F5FC9F7880F911D96954B
:1013A000879597F90895E1E0660F771F881FBB1FA7
:1013B000621773078407BA0720F0621B730B840B54
:1013C000BA0BEE1F88F7E09508950E94A50A88F0F1
:1013D0009F5798F0B92F9927B751B0F0E1F0660FF9
:1013E000771F881F991F1AF0BA95C9F714C0B1303A
:1013F00091F00E94BF0AB1E008950C94BF0A672FD4
:10140000782F8827B85F39F0B93FCCF38695779568
:101410006795B395D9F73EF4909580957095619551
:101420007F4F8F4F9F4F0895E89409C097FB3EF47C
:1014300090958095709561957F4F8F4F9F4F992321
:10144000A9F0F92F96E9BB279395F695879577959F
:101450006795B795F111F8CFFAF4BB0F11F460FF5F
:101460001BC06F5F7F4F8F4F9F4F16C0882311F0B7
:1014700096E911C0772321F09EE8872F762F05C0CB
:10148000662371F096E8862F70E060E02AF09A9566
:10149000660F771F881FDAF7880F9695879597F95B
:1014A0000895990F0008550FAA0BE0E8FEEF1616F5
:1014B0001706E807F907C0F012161306E407F50748
:1014C00098F0621B730B840B950B39F40A2661F0BC
:1014D000232B242B252B21F408950A2609F4A1405F
:1014E000A6958FEF811D811D089597F99F6780E86C
:1014F00070E060E008959FEF80EC089500240A9466
:101500001616170618060906089500240A941216DE
:101510001306140605060895092E0394000C11F411
:10152000882352F0BB0F40F4BF2B11F460FF04C0BE
:101530006F5F7F4F8F4F9F4F089557FD9058440F17
:10154000551F59F05F3F71F04795880F97FB991F22
:1015500061F09F3F79F087950895121613061406DF
:10156000551FF2CF4695F1DF08C01616170618066C
:10157000991FF1CF86957105610508940895E89447
:10158000BB2766277727CB0197F908950E94510A58
:1015900008F48FEF08950E94DE0A0C948C0A0E94D2
:1015A0007E0A38F00E94850A20F0952311F00C94F1
:1015B000750A0C947B0A11240C94C00A0E949D0A9F
:1015C00070F3959FC1F3950F50E0551F629FF00196
:1015D000729FBB27F00DB11D639FAA27F00DB11DAF
:1015E000AA1F649F6627B00DA11D661F829F222738
:1015F000B00DA11D621F739FB00DA11D621F839FBF
:10160000A00D611D221F749F3327A00D611D231F94
:10161000849F600D211D822F762F6A2F11249F57E2
:1016200050409AF0F1F088234AF0EE0FFF1FBB1FE5
:10163000661F771F881F91505040A9F79E3F5105A4
:1016400080F00C94750A0C94C00A5F3FE4F3983E56
:10165000D4F3869577956795B795F795E7959F5F4E
:10166000C1F7FE2B880F911D9695879597F90895E0
:101670000E94510A880B990B0895A1E21A2EAA1B09
:10168000BB1BFD010DC0AA1FBB1FEE1FFF1FA21732
:10169000B307E407F50720F0A21BB30BE40BF50B2F
:1016A000661F771F881F991F1A9469F760957095B8
:1016B000809590959B01AC01BD01CF010895EE0F7F
:1016C000FF1F0590F491E02D0994F894FFCF0205D7
:1016D00002000000000004040E0E17170E0004069E
:1016E0000406040E0E00000000002301A401C40043
:1016F0007001F500D300E700000000004B05A401D5
:10170000B503B4036E616E00696E66006F766600A5
:10171000576974616D2E2E2E00426C6164206F64D7
:0E172000637A797475002000430020202500B4
:107E0000112484B714BE81FFF0D085E080938100F7
:107E100082E08093C00088E18093C10086E0809377
:107E2000C20080E18093C4008EE0C9D0259A86E02C
:107E300020E33CEF91E0309385002093840096BBD3
:107E4000B09BFECF1D9AA8958150A9F7CC24DD24C4
:107E500088248394B5E0AB2EA1E19A2EF3E0BF2EE7
:107E6000A2D0813461F49FD0082FAFD0023811F036
:107E7000013811F484E001C083E08DD089C08234E0
:107E800011F484E103C0853419F485E0A6D080C0E4
:107E9000853579F488D0E82EFF2485D0082F10E0AE
:107EA000102F00270E291F29000F111F8ED06801E7
:107EB0006FC0863521F484E090D080E0DECF843638
:107EC00009F040C070D06FD0082F6DD080E0C81688
:107ED00080E7D80618F4F601B7BEE895C0E0D1E017
:107EE00062D089930C17E1F7F0E0CF16F0E7DF06D8
:107EF00018F0F601B7BEE89568D007B600FCFDCFD4
:107F0000A601A0E0B1E02C9130E011968C91119780
:107F100090E0982F8827822B932B1296FA010C0160
:107F200087BEE89511244E5F5F4FF1E0A038BF0790
:107F300051F7F601A7BEE89507B600FCFDCF97BE46
:107F4000E89526C08437B1F42ED02DD0F82E2BD052
:107F50003CD0F601EF2C8F010F5F1F4F84911BD097
:107F6000EA94F801C1F70894C11CD11CFA94CF0C13
:107F7000D11C0EC0853739F428D08EE10CD085E9AC
:107F80000AD08FE07ACF813511F488E018D01DD067
:107F900080E101D065CF982F8091C00085FFFCCF94
:107FA0009093C60008958091C00087FFFCCF809118
:107FB000C00084FD01C0A8958091C6000895E0E648
:107FC000F0E098E1908380830895EDDF803219F02E
:107FD00088E0F5DFFFCF84E1DECF1F93182FE3DFCA
:107FE0001150E9F7F2DF1F91089580E0E8DFEE27F6
:047FF000FF270994CA
:027FFE00040479
:00000001FF
